{
  "contractName": "Squad",
  "abi": [
    {
      "inputs": [
        {
          "internalType": "string",
          "name": "_orgName",
          "type": "string"
        }
      ],
      "stateMutability": "nonpayable",
      "type": "constructor"
    },
    {
      "inputs": [
        {
          "internalType": "uint256",
          "name": "",
          "type": "uint256"
        }
      ],
      "name": "employeeAddrs",
      "outputs": [
        {
          "internalType": "address",
          "name": "",
          "type": "address"
        }
      ],
      "stateMutability": "view",
      "type": "function",
      "constant": true
    },
    {
      "inputs": [
        {
          "internalType": "address",
          "name": "",
          "type": "address"
        }
      ],
      "name": "employeeNames",
      "outputs": [
        {
          "internalType": "string",
          "name": "",
          "type": "string"
        }
      ],
      "stateMutability": "view",
      "type": "function",
      "constant": true
    },
    {
      "inputs": [
        {
          "internalType": "address",
          "name": "",
          "type": "address"
        }
      ],
      "name": "fileNames",
      "outputs": [
        {
          "internalType": "string",
          "name": "",
          "type": "string"
        }
      ],
      "stateMutability": "view",
      "type": "function",
      "constant": true
    },
    {
      "inputs": [
        {
          "internalType": "string",
          "name": "",
          "type": "string"
        }
      ],
      "name": "groupMap",
      "outputs": [
        {
          "internalType": "string",
          "name": "name",
          "type": "string"
        }
      ],
      "stateMutability": "view",
      "type": "function",
      "constant": true
    },
    {
      "inputs": [
        {
          "internalType": "uint256",
          "name": "",
          "type": "uint256"
        }
      ],
      "name": "groups",
      "outputs": [
        {
          "internalType": "string",
          "name": "name",
          "type": "string"
        }
      ],
      "stateMutability": "view",
      "type": "function",
      "constant": true
    },
    {
      "inputs": [],
      "name": "getOrgDetails",
      "outputs": [
        {
          "internalType": "string",
          "name": "",
          "type": "string"
        },
        {
          "internalType": "address",
          "name": "",
          "type": "address"
        },
        {
          "components": [
            {
              "internalType": "string",
              "name": "name",
              "type": "string"
            },
            {
              "internalType": "address",
              "name": "addr",
              "type": "address"
            }
          ],
          "internalType": "struct Squad.Employee[]",
          "name": "",
          "type": "tuple[]"
        }
      ],
      "stateMutability": "view",
      "type": "function",
      "constant": true
    },
    {
      "inputs": [
        {
          "internalType": "address",
          "name": "_employeeAddress",
          "type": "address"
        },
        {
          "internalType": "string",
          "name": "_employeeName",
          "type": "string"
        }
      ],
      "name": "addEmployee",
      "outputs": [],
      "stateMutability": "nonpayable",
      "type": "function"
    },
    {
      "inputs": [
        {
          "internalType": "string",
          "name": "_groupName",
          "type": "string"
        }
      ],
      "name": "createGroup",
      "outputs": [],
      "stateMutability": "nonpayable",
      "type": "function"
    },
    {
      "inputs": [
        {
          "internalType": "string",
          "name": "_groupName",
          "type": "string"
        },
        {
          "internalType": "address",
          "name": "_employeeAddress",
          "type": "address"
        }
      ],
      "name": "addEmployeeToGroup",
      "outputs": [],
      "stateMutability": "nonpayable",
      "type": "function"
    },
    {
      "inputs": [
        {
          "internalType": "string",
          "name": "_groupName",
          "type": "string"
        },
        {
          "internalType": "address",
          "name": "_employeeAddress",
          "type": "address"
        }
      ],
      "name": "deleteEmployeeFromGroup",
      "outputs": [],
      "stateMutability": "nonpayable",
      "type": "function"
    },
    {
      "inputs": [
        {
          "internalType": "string",
          "name": "_groupName",
          "type": "string"
        },
        {
          "internalType": "address",
          "name": "_fileAddress",
          "type": "address"
        },
        {
          "internalType": "string",
          "name": "_fileName",
          "type": "string"
        }
      ],
      "name": "addFileToGroup",
      "outputs": [],
      "stateMutability": "nonpayable",
      "type": "function"
    },
    {
      "inputs": [
        {
          "internalType": "string",
          "name": "_groupName",
          "type": "string"
        },
        {
          "internalType": "address",
          "name": "_fileAddress",
          "type": "address"
        }
      ],
      "name": "deleteFileFromGroup",
      "outputs": [],
      "stateMutability": "nonpayable",
      "type": "function"
    },
    {
      "inputs": [
        {
          "internalType": "string",
          "name": "_groupName",
          "type": "string"
        }
      ],
      "name": "getFilesInGroup",
      "outputs": [
        {
          "internalType": "address[]",
          "name": "",
          "type": "address[]"
        },
        {
          "internalType": "string[]",
          "name": "",
          "type": "string[]"
        }
      ],
      "stateMutability": "view",
      "type": "function",
      "constant": true
    },
    {
      "inputs": [],
      "name": "getGroups",
      "outputs": [
        {
          "components": [
            {
              "internalType": "string",
              "name": "name",
              "type": "string"
            },
            {
              "internalType": "address[]",
              "name": "members",
              "type": "address[]"
            },
            {
              "internalType": "address[]",
              "name": "files",
              "type": "address[]"
            }
          ],
          "internalType": "struct Squad.Group[]",
          "name": "",
          "type": "tuple[]"
        }
      ],
      "stateMutability": "view",
      "type": "function",
      "constant": true
    },
    {
      "inputs": [],
      "name": "getEmployees",
      "outputs": [
        {
          "components": [
            {
              "internalType": "string",
              "name": "name",
              "type": "string"
            },
            {
              "internalType": "address",
              "name": "addr",
              "type": "address"
            }
          ],
          "internalType": "struct Squad.Employee[]",
          "name": "",
          "type": "tuple[]"
        }
      ],
      "stateMutability": "view",
      "type": "function",
      "constant": true
    },
    {
      "inputs": [
        {
          "internalType": "string",
          "name": "_groupName",
          "type": "string"
        }
      ],
      "name": "getEmployeesInGroup",
      "outputs": [
        {
          "components": [
            {
              "internalType": "string",
              "name": "name",
              "type": "string"
            },
            {
              "internalType": "address",
              "name": "addr",
              "type": "address"
            }
          ],
          "internalType": "struct Squad.Employee[]",
          "name": "",
          "type": "tuple[]"
        }
      ],
      "stateMutability": "view",
      "type": "function",
      "constant": true
    },
    {
      "inputs": [
        {
          "internalType": "address",
          "name": "_employeeAddress",
          "type": "address"
        }
      ],
      "name": "isEmployee",
      "outputs": [
        {
          "internalType": "bool",
          "name": "",
          "type": "bool"
        }
      ],
      "stateMutability": "view",
      "type": "function",
      "constant": true
    }
  ],
  "bytecode": "0x60806040523480156200001157600080fd5b506040516200441f3803806200441f833981810160405281019062000037919062000200565b60008151116200007e576040517f08c379a000000000000000000000000000000000000000000000000000000000815260040162000075906200026c565b60405180910390fd5b336000806101000a81548173ffffffffffffffffffffffffffffffffffffffff021916908373ffffffffffffffffffffffffffffffffffffffff1602179055508060019080519060200190620000d6929190620000de565b505062000438565b828054620000ec9062000334565b90600052602060002090601f0160209004810192826200011057600085556200015c565b82601f106200012b57805160ff19168380011785556200015c565b828001600101855582156200015c579182015b828111156200015b5782518255916020019190600101906200013e565b5b5090506200016b91906200016f565b5090565b5b808211156200018a57600081600090555060010162000170565b5090565b6000620001a56200019f84620002b7565b6200028e565b905082815260208101848484011115620001be57600080fd5b620001cb848285620002fe565b509392505050565b600082601f830112620001e557600080fd5b8151620001f78482602086016200018e565b91505092915050565b6000602082840312156200021357600080fd5b600082015167ffffffffffffffff8111156200022e57600080fd5b6200023c84828501620001d3565b91505092915050565b600062000254601d83620002ed565b915062000261826200040f565b602082019050919050565b60006020820190508181036000830152620002878162000245565b9050919050565b60006200029a620002ad565b9050620002a882826200036a565b919050565b6000604051905090565b600067ffffffffffffffff821115620002d557620002d4620003cf565b5b620002e082620003fe565b9050602081019050919050565b600082825260208201905092915050565b60005b838110156200031e57808201518184015260208101905062000301565b838111156200032e576000848401525b50505050565b600060028204905060018216806200034d57607f821691505b60208210811415620003645762000363620003a0565b5b50919050565b6200037582620003fe565b810181811067ffffffffffffffff82111715620003975762000396620003cf565b5b80604052505050565b7f4e487b7100000000000000000000000000000000000000000000000000000000600052602260045260246000fd5b7f4e487b7100000000000000000000000000000000000000000000000000000000600052604160045260246000fd5b6000601f19601f8301169050919050565b7f4f7267616e697a6174696f6e206e616d65206973207265717569726564000000600082015250565b613fd780620004486000396000f3fe608060405234801561001057600080fd5b506004361061010b5760003560e01c8063a502e808116100a2578063cc24e69711610071578063cc24e697146102cd578063dc2ddcae146102fd578063ea66543f14610319578063ee7f4e4314610349578063f2dc37c2146103795761010b565b8063a502e8081461025b578063a5b2f3f314610277578063b9b99ad714610293578063c72b5176146102af5761010b565b80634abefa36116100de5780634abefa36146101c15780636978bba3146101df57806396324bd41461020f5780639c5450c01461023f5761010b565b806302f81bd91461011057806335d0de6a146101415780634007ae5b1461017157806343ecb677146101a1575b600080fd5b61012a60048036038101906101259190612e24565b610395565b60405161013892919061359d565b60405180910390f35b61015b60048036038101906101569190612da7565b6106d9565b6040516101689190613633565b60405180910390f35b61018b60048036038101906101869190612e24565b610779565b6040516101989190613633565b60405180910390f35b6101a9610835565b6040516101b893929190613655565b60405180910390f35b6101c9610b9c565b6040516101d691906135d4565b60405180910390f35b6101f960048036038101906101f49190612f38565b610e4a565b6040516102069190613582565b60405180910390f35b61022960048036038101906102249190612f38565b610e89565b6040516102369190613633565b60405180910390f35b61025960048036038101906102549190612e65565b610f3f565b005b61027560048036038101906102709190612dd0565b6113d9565b005b610291600480360381019061028c9190612e65565b611664565b005b6102ad60048036038101906102a89190612e65565b611a49565b005b6102b7611df2565b6040516102c491906135f6565b60405180910390f35b6102e760048036038101906102e29190612e24565b611fff565b6040516102f491906135d4565b60405180910390f35b61031760048036038101906103129190612e24565b61234a565b005b610333600480360381019061032e9190612da7565b612682565b6040516103409190613618565b60405180910390f35b610363600480360381019061035e9190612da7565b6127b2565b6040516103709190613633565b60405180910390f35b610393600480360381019061038e9190612eb9565b612852565b005b60608060006005846040516103aa919061356b565b908152602001604051809103902060000180546103c690613adb565b905011610408576040517f08c379a00000000000000000000000000000000000000000000000000000000081526004016103ff906137da565b60405180910390fd5b600060058460405161041a919061356b565b908152602001604051809103902090506000816002018054905067ffffffffffffffff811115610473577f4e487b7100000000000000000000000000000000000000000000000000000000600052604160045260246000fd5b6040519080825280602002602001820160405280156104a657816020015b60608152602001906001900390816104915790505b50905060005b826002018054905081101561064057600660008460020183815481106104fb577f4e487b7100000000000000000000000000000000000000000000000000000000600052603260045260246000fd5b9060005260206000200160009054906101000a900473ffffffffffffffffffffffffffffffffffffffff1673ffffffffffffffffffffffffffffffffffffffff1673ffffffffffffffffffffffffffffffffffffffff168152602001908152602001600020805461056b90613adb565b80601f016020809104026020016040519081016040528092919081815260200182805461059790613adb565b80156105e45780601f106105b9576101008083540402835291602001916105e4565b820191906000526020600020905b8154815290600101906020018083116105c757829003601f168201915b5050505050828281518110610622577f4e487b7100000000000000000000000000000000000000000000000000000000600052603260045260246000fd5b6020026020010181905250808061063890613b3e565b9150506104ac565b508160020181818054806020026020016040519081016040528092919081815260200182805480156106c757602002820191906000526020600020905b8160009054906101000a900473ffffffffffffffffffffffffffffffffffffffff1673ffffffffffffffffffffffffffffffffffffffff168152602001906001019080831161067d575b50505050509150935093505050915091565b600660205280600052604060002060009150905080546106f890613adb565b80601f016020809104026020016040519081016040528092919081815260200182805461072490613adb565b80156107715780601f1061074657610100808354040283529160200191610771565b820191906000526020600020905b81548152906001019060200180831161075457829003601f168201915b505050505081565b6005818051602081018201805184825260208301602085012081835280955050505050506000915090508060000180546107b290613adb565b80601f01602080910402602001604051908101604052809291908181526020018280546107de90613adb565b801561082b5780601f106108005761010080835404028352916020019161082b565b820191906000526020600020905b81548152906001019060200180831161080e57829003601f168201915b5050505050905081565b606060006060600060038054905067ffffffffffffffff811115610882577f4e487b7100000000000000000000000000000000000000000000000000000000600052604160045260246000fd5b6040519080825280602002602001820160405280156108bb57816020015b6108a8612bb8565b8152602001906001900390816108a05790505b50905060005b600380549050811015610adf5760405180604001604052806002600060038581548110610917577f4e487b7100000000000000000000000000000000000000000000000000000000600052603260045260246000fd5b9060005260206000200160009054906101000a900473ffffffffffffffffffffffffffffffffffffffff1673ffffffffffffffffffffffffffffffffffffffff1673ffffffffffffffffffffffffffffffffffffffff168152602001908152602001600020805461098790613adb565b80601f01602080910402602001604051908101604052809291908181526020018280546109b390613adb565b8015610a005780601f106109d557610100808354040283529160200191610a00565b820191906000526020600020905b8154815290600101906020018083116109e357829003601f168201915b5050505050815260200160038381548110610a44577f4e487b7100000000000000000000000000000000000000000000000000000000600052603260045260246000fd5b9060005260206000200160009054906101000a900473ffffffffffffffffffffffffffffffffffffffff1673ffffffffffffffffffffffffffffffffffffffff16815250828281518110610ac1577f4e487b7100000000000000000000000000000000000000000000000000000000600052603260045260246000fd5b60200260200101819052508080610ad790613b3e565b9150506108c1565b50600160008054906101000a900473ffffffffffffffffffffffffffffffffffffffff1682828054610b1090613adb565b80601f0160208091040260200160405190810160405280929190818152602001828054610b3c90613adb565b8015610b895780601f10610b5e57610100808354040283529160200191610b89565b820191906000526020600020905b815481529060010190602001808311610b6c57829003601f168201915b5050505050925093509350935050909192565b6060600060038054905067ffffffffffffffff811115610be5577f4e487b7100000000000000000000000000000000000000000000000000000000600052604160045260246000fd5b604051908082528060200260200182016040528015610c1e57816020015b610c0b612bb8565b815260200190600190039081610c035790505b50905060005b600380549050811015610e425760405180604001604052806002600060038581548110610c7a577f4e487b7100000000000000000000000000000000000000000000000000000000600052603260045260246000fd5b9060005260206000200160009054906101000a900473ffffffffffffffffffffffffffffffffffffffff1673ffffffffffffffffffffffffffffffffffffffff1673ffffffffffffffffffffffffffffffffffffffff1681526020019081526020016000208054610cea90613adb565b80601f0160208091040260200160405190810160405280929190818152602001828054610d1690613adb565b8015610d635780601f10610d3857610100808354040283529160200191610d63565b820191906000526020600020905b815481529060010190602001808311610d4657829003601f168201915b5050505050815260200160038381548110610da7577f4e487b7100000000000000000000000000000000000000000000000000000000600052603260045260246000fd5b9060005260206000200160009054906101000a900473ffffffffffffffffffffffffffffffffffffffff1673ffffffffffffffffffffffffffffffffffffffff16815250828281518110610e24577f4e487b7100000000000000000000000000000000000000000000000000000000600052603260045260246000fd5b60200260200101819052508080610e3a90613b3e565b915050610c24565b508091505090565b60038181548110610e5a57600080fd5b906000526020600020016000915054906101000a900473ffffffffffffffffffffffffffffffffffffffff1681565b60048181548110610e9957600080fd5b9060005260206000209060030201600091509050806000018054610ebc90613adb565b80601f0160208091040260200160405190810160405280929190818152602001828054610ee890613adb565b8015610f355780601f10610f0a57610100808354040283529160200191610f35565b820191906000526020600020905b815481529060010190602001808311610f1857829003601f168201915b5050505050905081565b600073ffffffffffffffffffffffffffffffffffffffff168173ffffffffffffffffffffffffffffffffffffffff161415610faf576040517f08c379a0000000000000000000000000000000000000000000000000000000008152600401610fa69061379a565b60405180910390fd5b6000600583604051610fc1919061356b565b90815260200160405180910390206000018054610fdd90613adb565b90501161101f576040517f08c379a0000000000000000000000000000000000000000000000000000000008152600401611016906137da565b60405180910390fd5b6000600583604051611031919061356b565b908152602001604051809103902090506000805b826001018054905081101561110a573373ffffffffffffffffffffffffffffffffffffffff168360010182815481106110a7577f4e487b7100000000000000000000000000000000000000000000000000000000600052603260045260246000fd5b9060005260206000200160009054906101000a900473ffffffffffffffffffffffffffffffffffffffff1673ffffffffffffffffffffffffffffffffffffffff1614156110f7576001915061110a565b808061110290613b3e565b915050611045565b508080611162575060008054906101000a900473ffffffffffffffffffffffffffffffffffffffff1673ffffffffffffffffffffffffffffffffffffffff163373ffffffffffffffffffffffffffffffffffffffff16145b6111a1576040517f08c379a00000000000000000000000000000000000000000000000000000000081526004016111989061383a565b60405180910390fd5b60005b82600201805490508110156113d2578373ffffffffffffffffffffffffffffffffffffffff16836002018281548110611206577f4e487b7100000000000000000000000000000000000000000000000000000000600052603260045260246000fd5b9060005260206000200160009054906101000a900473ffffffffffffffffffffffffffffffffffffffff1673ffffffffffffffffffffffffffffffffffffffff1614156113bf5782600201600184600201805490506112659190613a1d565b8154811061129c577f4e487b7100000000000000000000000000000000000000000000000000000000600052603260045260246000fd5b9060005260206000200160009054906101000a900473ffffffffffffffffffffffffffffffffffffffff16836002018281548110611303577f4e487b7100000000000000000000000000000000000000000000000000000000600052603260045260246000fd5b9060005260206000200160006101000a81548173ffffffffffffffffffffffffffffffffffffffff021916908373ffffffffffffffffffffffffffffffffffffffff16021790555082600201805480611385577f4e487b7100000000000000000000000000000000000000000000000000000000600052603160045260246000fd5b6001900381819060005260206000200160006101000a81549073ffffffffffffffffffffffffffffffffffffffff021916905590556113d2565b80806113ca90613b3e565b9150506111a4565b5050505050565b60008054906101000a900473ffffffffffffffffffffffffffffffffffffffff1673ffffffffffffffffffffffffffffffffffffffff163373ffffffffffffffffffffffffffffffffffffffff1614611467576040517f08c379a000000000000000000000000000000000000000000000000000000000815260040161145e9061373a565b60405180910390fd5b60008151116114ab576040517f08c379a00000000000000000000000000000000000000000000000000000000081526004016114a2906136da565b60405180910390fd5b600073ffffffffffffffffffffffffffffffffffffffff168273ffffffffffffffffffffffffffffffffffffffff16141561151b576040517f08c379a00000000000000000000000000000000000000000000000000000000081526004016115129061387a565b60405180910390fd5b6000600260008473ffffffffffffffffffffffffffffffffffffffff1673ffffffffffffffffffffffffffffffffffffffff168152602001908152602001600020805461156790613adb565b9050146115a9576040517f08c379a00000000000000000000000000000000000000000000000000000000081526004016115a09061369a565b60405180910390fd5b6003829080600181540180825580915050600190039060005260206000200160009091909190916101000a81548173ffffffffffffffffffffffffffffffffffffffff021916908373ffffffffffffffffffffffffffffffffffffffff16021790555080600260008473ffffffffffffffffffffffffffffffffffffffff1673ffffffffffffffffffffffffffffffffffffffff168152602001908152602001600020908051906020019061165f929190612be8565b505050565b60008054906101000a900473ffffffffffffffffffffffffffffffffffffffff1673ffffffffffffffffffffffffffffffffffffffff163373ffffffffffffffffffffffffffffffffffffffff16146116f2576040517f08c379a00000000000000000000000000000000000000000000000000000000081526004016116e9906137fa565b60405180910390fd5b6000600583604051611704919061356b565b9081526020016040518091039020600001805461172090613adb565b905011611762576040517f08c379a0000000000000000000000000000000000000000000000000000000008152600401611759906137da565b60405180910390fd5b6000600260008373ffffffffffffffffffffffffffffffffffffffff1673ffffffffffffffffffffffffffffffffffffffff16815260200190815260200160002080546117ae90613adb565b9050116117f0576040517f08c379a00000000000000000000000000000000000000000000000000000000081526004016117e7906136fa565b60405180910390fd5b6000600583604051611802919061356b565b9081526020016040518091039020905060005b8160010180549050811015611a43578273ffffffffffffffffffffffffffffffffffffffff16826001018281548110611877577f4e487b7100000000000000000000000000000000000000000000000000000000600052603260045260246000fd5b9060005260206000200160009054906101000a900473ffffffffffffffffffffffffffffffffffffffff1673ffffffffffffffffffffffffffffffffffffffff161415611a305781600101600183600101805490506118d69190613a1d565b8154811061190d577f4e487b7100000000000000000000000000000000000000000000000000000000600052603260045260246000fd5b9060005260206000200160009054906101000a900473ffffffffffffffffffffffffffffffffffffffff16826001018281548110611974577f4e487b7100000000000000000000000000000000000000000000000000000000600052603260045260246000fd5b9060005260206000200160006101000a81548173ffffffffffffffffffffffffffffffffffffffff021916908373ffffffffffffffffffffffffffffffffffffffff160217905550816001018054806119f6577f4e487b7100000000000000000000000000000000000000000000000000000000600052603160045260246000fd5b6001900381819060005260206000200160006101000a81549073ffffffffffffffffffffffffffffffffffffffff02191690559055611a43565b8080611a3b90613b3e565b915050611815565b50505050565b60008054906101000a900473ffffffffffffffffffffffffffffffffffffffff1673ffffffffffffffffffffffffffffffffffffffff163373ffffffffffffffffffffffffffffffffffffffff1614611ad7576040517f08c379a0000000000000000000000000000000000000000000000000000000008152600401611ace9061371a565b60405180910390fd5b6000805b600380549050811015611b9c578273ffffffffffffffffffffffffffffffffffffffff1660038281548110611b39577f4e487b7100000000000000000000000000000000000000000000000000000000600052603260045260246000fd5b9060005260206000200160009054906101000a900473ffffffffffffffffffffffffffffffffffffffff1673ffffffffffffffffffffffffffffffffffffffff161415611b895760019150611b9c565b8080611b9490613b3e565b915050611adb565b5080611bdd576040517f08c379a0000000000000000000000000000000000000000000000000000000008152600401611bd4906136fa565b60405180910390fd5b6000600584604051611bef919061356b565b90815260200160405180910390206000018054611c0b90613adb565b905011611c4d576040517f08c379a0000000000000000000000000000000000000000000000000000000008152600401611c44906137da565b60405180910390fd5b6000600584604051611c5f919061356b565b9081526020016040518091039020905060005b8160010180549050811015611d69578373ffffffffffffffffffffffffffffffffffffffff16826001018281548110611cd4577f4e487b7100000000000000000000000000000000000000000000000000000000600052603260045260246000fd5b9060005260206000200160009054906101000a900473ffffffffffffffffffffffffffffffffffffffff1673ffffffffffffffffffffffffffffffffffffffff161415611d56576040517f08c379a0000000000000000000000000000000000000000000000000000000008152600401611d4d9061381a565b60405180910390fd5b8080611d6190613b3e565b915050611c72565b50600584604051611d7a919061356b565b9081526020016040518091039020600101839080600181540180825580915050600190039060005260206000200160009091909190916101000a81548173ffffffffffffffffffffffffffffffffffffffff021916908373ffffffffffffffffffffffffffffffffffffffff16021790555050505050565b60606004805480602002602001604051908101604052809291908181526020016000905b82821015611ff65783829060005260206000209060030201604051806060016040529081600082018054611e4990613adb565b80601f0160208091040260200160405190810160405280929190818152602001828054611e7590613adb565b8015611ec25780601f10611e9757610100808354040283529160200191611ec2565b820191906000526020600020905b815481529060010190602001808311611ea557829003601f168201915b5050505050815260200160018201805480602002602001604051908101604052809291908181526020018280548015611f5057602002820191906000526020600020905b8160009054906101000a900473ffffffffffffffffffffffffffffffffffffffff1673ffffffffffffffffffffffffffffffffffffffff1681526020019060010190808311611f06575b5050505050815260200160028201805480602002602001604051908101604052809291908181526020018280548015611fde57602002820191906000526020600020905b8160009054906101000a900473ffffffffffffffffffffffffffffffffffffffff1673ffffffffffffffffffffffffffffffffffffffff1681526020019060010190808311611f94575b50505050508152505081526020019060010190611e16565b50505050905090565b60606000600583604051612013919061356b565b9081526020016040518091039020600001805461202f90613adb565b905011612071576040517f08c379a0000000000000000000000000000000000000000000000000000000008152600401612068906137da565b60405180910390fd5b6000600583604051612083919061356b565b908152602001604051809103902090506000816001018054905067ffffffffffffffff8111156120dc577f4e487b7100000000000000000000000000000000000000000000000000000000600052604160045260246000fd5b60405190808252806020026020018201604052801561211557816020015b612102612bb8565b8152602001906001900390816120fa5790505b50905060005b826001018054905081101561233f57604051806040016040528060026000866001018581548110612175577f4e487b7100000000000000000000000000000000000000000000000000000000600052603260045260246000fd5b9060005260206000200160009054906101000a900473ffffffffffffffffffffffffffffffffffffffff1673ffffffffffffffffffffffffffffffffffffffff1673ffffffffffffffffffffffffffffffffffffffff16815260200190815260200160002080546121e590613adb565b80601f016020809104026020016040519081016040528092919081815260200182805461221190613adb565b801561225e5780601f106122335761010080835404028352916020019161225e565b820191906000526020600020905b81548152906001019060200180831161224157829003601f168201915b505050505081526020018460010183815481106122a4577f4e487b7100000000000000000000000000000000000000000000000000000000600052603260045260246000fd5b9060005260206000200160009054906101000a900473ffffffffffffffffffffffffffffffffffffffff1673ffffffffffffffffffffffffffffffffffffffff16815250828281518110612321577f4e487b7100000000000000000000000000000000000000000000000000000000600052603260045260246000fd5b6020026020010181905250808061233790613b3e565b91505061211b565b508092505050919050565b60008054906101000a900473ffffffffffffffffffffffffffffffffffffffff1673ffffffffffffffffffffffffffffffffffffffff163373ffffffffffffffffffffffffffffffffffffffff16146123d8576040517f08c379a00000000000000000000000000000000000000000000000000000000081526004016123cf9061377a565b60405180910390fd5b600081511161241c576040517f08c379a0000000000000000000000000000000000000000000000000000000008152600401612413906136ba565b60405180910390fd5b600060058260405161242e919061356b565b90815260200160405180910390206001018054905014612483576040517f08c379a000000000000000000000000000000000000000000000000000000000815260040161247a9061375a565b60405180910390fd5b60006040518060600160405280838152602001600067ffffffffffffffff8111156124d7577f4e487b7100000000000000000000000000000000000000000000000000000000600052604160045260246000fd5b6040519080825280602002602001820160405280156125055781602001602082028036833780820191505090505b508152602001600067ffffffffffffffff81111561254c577f4e487b7100000000000000000000000000000000000000000000000000000000600052604160045260246000fd5b60405190808252806020026020018201604052801561257a5781602001602082028036833780820191505090505b508152509050600481908060018154018082558091505060019003906000526020600020906003020160009091909190915060008201518160000190805190602001906125c8929190612be8565b5060208201518160010190805190602001906125e5929190612c6e565b506040820151816002019080519060200190612602929190612c6e565b50505080600583604051612616919061356b565b90815260200160405180910390206000820151816000019080519060200190612640929190612be8565b50602082015181600101908051906020019061265d929190612c6e565b50604082015181600201908051906020019061267a929190612c6e565b509050505050565b60008060009054906101000a900473ffffffffffffffffffffffffffffffffffffffff1673ffffffffffffffffffffffffffffffffffffffff168273ffffffffffffffffffffffffffffffffffffffff1614156126e257600190506127ad565b60005b6003805490508110156127a7578273ffffffffffffffffffffffffffffffffffffffff1660038281548110612743577f4e487b7100000000000000000000000000000000000000000000000000000000600052603260045260246000fd5b9060005260206000200160009054906101000a900473ffffffffffffffffffffffffffffffffffffffff1673ffffffffffffffffffffffffffffffffffffffff1614156127945760019150506127ad565b808061279f90613b3e565b9150506126e5565b50600090505b919050565b600260205280600052604060002060009150905080546127d190613adb565b80601f01602080910402602001604051908101604052809291908181526020018280546127fd90613adb565b801561284a5780601f1061281f5761010080835404028352916020019161284a565b820191906000526020600020905b81548152906001019060200180831161282d57829003601f168201915b505050505081565b6000600584604051612864919061356b565b908152602001604051809103902090506000805b826001018054905081101561293d573373ffffffffffffffffffffffffffffffffffffffff168360010182815481106128da577f4e487b7100000000000000000000000000000000000000000000000000000000600052603260045260246000fd5b9060005260206000200160009054906101000a900473ffffffffffffffffffffffffffffffffffffffff1673ffffffffffffffffffffffffffffffffffffffff16141561292a576001915061293d565b808061293590613b3e565b915050612878565b50600073ffffffffffffffffffffffffffffffffffffffff168473ffffffffffffffffffffffffffffffffffffffff1614156129ae576040517f08c379a00000000000000000000000000000000000000000000000000000000081526004016129a59061379a565b60405180910390fd5b60008351116129f2576040517f08c379a00000000000000000000000000000000000000000000000000000000081526004016129e99061385a565b60405180910390fd5b6000600586604051612a04919061356b565b90815260200160405180910390206000018054612a2090613adb565b905011612a62576040517f08c379a0000000000000000000000000000000000000000000000000000000008152600401612a59906137da565b60405180910390fd5b8080612ab9575060008054906101000a900473ffffffffffffffffffffffffffffffffffffffff1673ffffffffffffffffffffffffffffffffffffffff163373ffffffffffffffffffffffffffffffffffffffff16145b612af8576040517f08c379a0000000000000000000000000000000000000000000000000000000008152600401612aef906137ba565b60405180910390fd5b81600201849080600181540180825580915050600190039060005260206000200160009091909190916101000a81548173ffffffffffffffffffffffffffffffffffffffff021916908373ffffffffffffffffffffffffffffffffffffffff16021790555082600660008673ffffffffffffffffffffffffffffffffffffffff1673ffffffffffffffffffffffffffffffffffffffff1681526020019081526020016000209080519060200190612bb0929190612be8565b505050505050565b604051806040016040528060608152602001600073ffffffffffffffffffffffffffffffffffffffff1681525090565b828054612bf490613adb565b90600052602060002090601f016020900481019282612c165760008555612c5d565b82601f10612c2f57805160ff1916838001178555612c5d565b82800160010185558215612c5d579182015b82811115612c5c578251825591602001919060010190612c41565b5b509050612c6a9190612cf8565b5090565b828054828255906000526020600020908101928215612ce7579160200282015b82811115612ce65782518260006101000a81548173ffffffffffffffffffffffffffffffffffffffff021916908373ffffffffffffffffffffffffffffffffffffffff16021790555091602001919060010190612c8e565b5b509050612cf49190612cf8565b5090565b5b80821115612d11576000816000905550600101612cf9565b5090565b6000612d28612d23846138bf565b61389a565b905082815260208101848484011115612d4057600080fd5b612d4b848285613a99565b509392505050565b600081359050612d6281613f73565b92915050565b600082601f830112612d7957600080fd5b8135612d89848260208601612d15565b91505092915050565b600081359050612da181613f8a565b92915050565b600060208284031215612db957600080fd5b6000612dc784828501612d53565b91505092915050565b60008060408385031215612de357600080fd5b6000612df185828601612d53565b925050602083013567ffffffffffffffff811115612e0e57600080fd5b612e1a85828601612d68565b9150509250929050565b600060208284031215612e3657600080fd5b600082013567ffffffffffffffff811115612e5057600080fd5b612e5c84828501612d68565b91505092915050565b60008060408385031215612e7857600080fd5b600083013567ffffffffffffffff811115612e9257600080fd5b612e9e85828601612d68565b9250506020612eaf85828601612d53565b9150509250929050565b600080600060608486031215612ece57600080fd5b600084013567ffffffffffffffff811115612ee857600080fd5b612ef486828701612d68565b9350506020612f0586828701612d53565b925050604084013567ffffffffffffffff811115612f2257600080fd5b612f2e86828701612d68565b9150509250925092565b600060208284031215612f4a57600080fd5b6000612f5884828501612d92565b91505092915050565b6000612f6d8383612fb5565b60208301905092915050565b6000612f8583836131fd565b905092915050565b6000612f9983836134d0565b905092915050565b6000612fad838361350d565b905092915050565b612fbe81613a51565b82525050565b612fcd81613a51565b82525050565b6000612fde82613930565b612fe8818561399b565b9350612ff3836138f0565b8060005b8381101561302457815161300b8882612f61565b975061301683613967565b925050600181019050612ff7565b5085935050505092915050565b600061303c82613930565b61304681856139ac565b9350613051836138f0565b8060005b838110156130825781516130698882612f61565b975061307483613967565b925050600181019050613055565b5085935050505092915050565b600061309a8261393b565b6130a481856139bd565b9350836020820285016130b685613900565b8060005b858110156130f257848403895281516130d38582612f79565b94506130de83613974565b925060208a019950506001810190506130ba565b50829750879550505050505092915050565b600061310f82613946565b61311981856139ce565b93508360208202850161312b85613910565b8060005b8581101561316757848403895281516131488582612f8d565b945061315383613981565b925060208a0199505060018101905061312f565b50829750879550505050505092915050565b600061318482613951565b61318e81856139df565b9350836020820285016131a085613920565b8060005b858110156131dc57848403895281516131bd8582612fa1565b94506131c88361398e565b925060208a019950506001810190506131a4565b50829750879550505050505092915050565b6131f781613a63565b82525050565b60006132088261395c565b61321281856139f0565b9350613222818560208601613aa8565b61322b81613c14565b840191505092915050565b60006132418261395c565b61324b8185613a01565b935061325b818560208601613aa8565b61326481613c14565b840191505092915050565b600061327a8261395c565b6132848185613a12565b9350613294818560208601613aa8565b80840191505092915050565b60006132ad601783613a01565b91506132b882613c25565b602082019050919050565b60006132d0601a83613a01565b91506132db82613c4e565b602082019050919050565b60006132f3601d83613a01565b91506132fe82613c77565b602082019050919050565b6000613316601783613a01565b915061332182613ca0565b602082019050919050565b6000613339602683613a01565b915061334482613cc9565b604082019050919050565b600061335c601c83613a01565b915061336782613d18565b602082019050919050565b600061337f601483613a01565b915061338a82613d41565b602082019050919050565b60006133a2601c83613a01565b91506133ad82613d6a565b602082019050919050565b60006133c5601883613a01565b91506133d082613d93565b602082019050919050565b60006133e8603583613a01565b91506133f382613dbc565b604082019050919050565b600061340b601483613a01565b915061341682613e0b565b602082019050919050565b600061342e602b83613a01565b915061343982613e34565b604082019050919050565b6000613451602483613a01565b915061345c82613e83565b604082019050919050565b6000613474603a83613a01565b915061347f82613ed2565b604082019050919050565b6000613497601983613a01565b91506134a282613f21565b602082019050919050565b60006134ba601c83613a01565b91506134c582613f4a565b602082019050919050565b600060408301600083015184820360008601526134ed82826131fd565b91505060208301516135026020860182612fb5565b508091505092915050565b6000606083016000830151848203600086015261352a82826131fd565b915050602083015184820360208601526135448282612fd3565b9150506040830151848203604086015261355e8282612fd3565b9150508091505092915050565b6000613577828461326f565b915081905092915050565b60006020820190506135976000830184612fc4565b92915050565b600060408201905081810360008301526135b78185613031565b905081810360208301526135cb818461308f565b90509392505050565b600060208201905081810360008301526135ee8184613104565b905092915050565b600060208201905081810360008301526136108184613179565b905092915050565b600060208201905061362d60008301846131ee565b92915050565b6000602082019050818103600083015261364d8184613236565b905092915050565b6000606082019050818103600083015261366f8186613236565b905061367e6020830185612fc4565b81810360408301526136908184613104565b9050949350505050565b600060208201905081810360008301526136b3816132a0565b9050919050565b600060208201905081810360008301526136d3816132c3565b9050919050565b600060208201905081810360008301526136f3816132e6565b9050919050565b6000602082019050818103600083015261371381613309565b9050919050565b600060208201905081810360008301526137338161332c565b9050919050565b600060208201905081810360008301526137538161334f565b9050919050565b6000602082019050818103600083015261377381613372565b9050919050565b6000602082019050818103600083015261379381613395565b9050919050565b600060208201905081810360008301526137b3816133b8565b9050919050565b600060208201905081810360008301526137d3816133db565b9050919050565b600060208201905081810360008301526137f3816133fe565b9050919050565b6000602082019050818103600083015261381381613421565b9050919050565b6000602082019050818103600083015261383381613444565b9050919050565b6000602082019050818103600083015261385381613467565b9050919050565b600060208201905081810360008301526138738161348a565b9050919050565b60006020820190508181036000830152613893816134ad565b9050919050565b60006138a46138b5565b90506138b08282613b0d565b919050565b6000604051905090565b600067ffffffffffffffff8211156138da576138d9613be5565b5b6138e382613c14565b9050602081019050919050565b6000819050602082019050919050565b6000819050602082019050919050565b6000819050602082019050919050565b6000819050602082019050919050565b600081519050919050565b600081519050919050565b600081519050919050565b600081519050919050565b600081519050919050565b6000602082019050919050565b6000602082019050919050565b6000602082019050919050565b6000602082019050919050565b600082825260208201905092915050565b600082825260208201905092915050565b600082825260208201905092915050565b600082825260208201905092915050565b600082825260208201905092915050565b600082825260208201905092915050565b600082825260208201905092915050565b600081905092915050565b6000613a2882613a8f565b9150613a3383613a8f565b925082821015613a4657613a45613b87565b5b828203905092915050565b6000613a5c82613a6f565b9050919050565b60008115159050919050565b600073ffffffffffffffffffffffffffffffffffffffff82169050919050565b6000819050919050565b82818337600083830152505050565b60005b83811015613ac6578082015181840152602081019050613aab565b83811115613ad5576000848401525b50505050565b60006002820490506001821680613af357607f821691505b60208210811415613b0757613b06613bb6565b5b50919050565b613b1682613c14565b810181811067ffffffffffffffff82111715613b3557613b34613be5565b5b80604052505050565b6000613b4982613a8f565b91507fffffffffffffffffffffffffffffffffffffffffffffffffffffffffffffffff821415613b7c57613b7b613b87565b5b600182019050919050565b7f4e487b7100000000000000000000000000000000000000000000000000000000600052601160045260246000fd5b7f4e487b7100000000000000000000000000000000000000000000000000000000600052602260045260246000fd5b7f4e487b7100000000000000000000000000000000000000000000000000000000600052604160045260246000fd5b6000601f19601f8301169050919050565b7f456d706c6f79656520616c726561647920657869737473000000000000000000600082015250565b7f47726f7570206e616d652063616e6e6f7420626520656d707479000000000000600082015250565b7f456d706c6f796565206e616d652063616e6e6f7420626520656d707479000000600082015250565b7f456d706c6f79656520646f6573206e6f74206578697374000000000000000000600082015250565b7f4f6e6c792061646d696e2063616e2061646420656d706c6f7965657320746f2060008201527f67726f7570730000000000000000000000000000000000000000000000000000602082015250565b7f4f6e6c792061646d696e2063616e2061646420656d706c6f7965657300000000600082015250565b7f47726f757020616c726561647920657869737473000000000000000000000000600082015250565b7f4f6e6c792061646d696e2063616e206372656174652067726f75707300000000600082015250565b7f46696c6520616464726573732069732072657175697265640000000000000000600082015250565b7f4f6e6c792061646d696e206f72206d656d62657273206f662067726f7570206360008201527f616e206164642066696c657320746f2067726f75700000000000000000000000602082015250565b7f47726f757020646f6573206e6f74206578697374000000000000000000000000600082015250565b7f4f6e6c792061646d696e2063616e2064656c65746520656d706c6f796565732060008201527f66726f6d2067726f757073000000000000000000000000000000000000000000602082015250565b7f456d706c6f79656520616c72656164792065786973747320696e20746865206760008201527f726f757000000000000000000000000000000000000000000000000000000000602082015250565b7f4f6e6c792061646d696e206f72206d656d62657273206f662067726f7570206360008201527f616e2064656c6574652066696c65732066726f6d2067726f7570000000000000602082015250565b7f46696c65206e616d652063616e6e6f7420626520656d70747900000000000000600082015250565b7f456d706c6f796565206164647265737320697320726571756972656400000000600082015250565b613f7c81613a51565b8114613f8757600080fd5b50565b613f9381613a8f565b8114613f9e57600080fd5b5056fea264697066735822122096b9d5a79600b371cedb6ee83ba6f8824171ebf33dcedff341e612308ff4a81264736f6c63430008040033",
  "immutableReferences": {},
  "source": "// SPDX-License-Identifier: MIT\npragma solidity ^0.8.4;\n\ncontract Squad {\n    address admin;\n    string orgName;\n\n    mapping(address => string) public employeeNames;\n    address[] public employeeAddrs;\n\n    struct Employee {\n        string name;\n        address addr;\n    }\n\n    struct Group {\n        string name;\n        address[] members;\n        address[] files;\n    }\n\n    Group[] public groups;\n    mapping(string => Group) public groupMap;\n    mapping(address => string) public fileNames;\n\n    constructor(string memory _orgName) {\n        require(bytes(_orgName).length > 0, \"Organization name is required\");\n        admin = payable(msg.sender);\n        orgName = _orgName;\n    }\n\n    function getOrgDetails () public view returns (string memory, address, Employee[] memory) {\n        Employee[] memory employees = new Employee[](employeeAddrs.length);\n        for (uint i = 0; i < employeeAddrs.length; i++) {\n            employees[i] = Employee(\n                employeeNames[employeeAddrs[i]],\n                employeeAddrs[i]\n            );\n        }\n        return (orgName, admin, employees);\n    }\n\n    // function to add employees to the organization\n    function addEmployee(\n        address _employeeAddress,\n        string memory _employeeName\n    ) public {\n        require(msg.sender == admin, \"Only admin can add employees\");\n        require(\n            bytes(_employeeName).length > 0,\n            \"Employee name cannot be empty\"\n        );\n        require(_employeeAddress != address(0), \"Employee address is required\");\n        require(\n            bytes(employeeNames[_employeeAddress]).length == 0,\n            \"Employee already exists\"\n        );\n        employeeAddrs.push(_employeeAddress);\n        employeeNames[_employeeAddress] = _employeeName;\n    }\n\n    // function to create a group\n    function createGroup(string memory _groupName) public {\n        require(msg.sender == admin, \"Only admin can create groups\");\n        require(bytes(_groupName).length > 0, \"Group name cannot be empty\");\n\n        require(\n            groupMap[_groupName].members.length == 0,\n            \"Group already exists\"\n        );\n        Group memory newGroup = Group(\n            _groupName,\n            new address[](0),\n            new address[](0)\n        );\n        groups.push(newGroup);\n        groupMap[_groupName] = newGroup;\n    }\n\n    // add an employee to a group by groupName\n    function addEmployeeToGroup(\n        string memory _groupName,\n        address _employeeAddress\n    ) public {\n        require(msg.sender == admin, \"Only admin can add employees to groups\");\n        bool employeeExists = false;\n        for (uint i = 0; i < employeeAddrs.length; i++) {\n            if (employeeAddrs[i] == _employeeAddress) {\n                employeeExists = true;\n                break;\n            }\n        }\n        require(employeeExists, \"Employee does not exist\");\n        require(\n            bytes(groupMap[_groupName].name).length > 0,\n            \"Group does not exist\"\n        );\n        // check if employee is already in the group\n        Group storage group = groupMap[_groupName];\n        for (uint i = 0; i < group.members.length; i++) {\n            if (group.members[i] == _employeeAddress) {\n                revert(\"Employee already exists in the group\");\n            }\n        }\n        groupMap[_groupName].members.push(_employeeAddress);\n    }\n\n    // delete employee from a group\n    function deleteEmployeeFromGroup(\n        string memory _groupName,\n        address _employeeAddress\n    ) public {\n        require(\n            msg.sender == admin,\n            \"Only admin can delete employees from groups\"\n        );\n        require(\n            bytes(groupMap[_groupName].name).length > 0,\n            \"Group does not exist\"\n        );\n        require(\n            bytes(employeeNames[_employeeAddress]).length > 0,\n            \"Employee does not exist\"\n        );\n        Group storage group = groupMap[_groupName];\n        for (uint i = 0; i < group.members.length; i++) {\n            if (group.members[i] == _employeeAddress) {\n                group.members[i] = group.members[group.members.length - 1];\n                group.members.pop();\n                break;\n            }\n        }\n    }\n\n    // add file to group, only allowed by admin or other members in group\n    function addFileToGroup(\n        string memory _groupName,\n        address _fileAddress,\n        string memory _fileName\n    ) public {\n        Group storage group = groupMap[_groupName];\n        bool memberExists = false;\n        for (uint i = 0; i < group.members.length; i++) {\n            if (group.members[i] == msg.sender) {\n                memberExists = true;\n                break;\n            }\n        }\n        // check for null address\n        require(_fileAddress != address(0), \"File address is required\");\n        require(bytes(_fileName).length > 0, \"File name cannot be empty\");\n        require(\n            bytes(groupMap[_groupName].name).length > 0,\n            \"Group does not exist\"\n        );\n        require(\n            memberExists || msg.sender == admin,\n            \"Only admin or members of group can add files to group\"\n        );\n        group.files.push(_fileAddress);\n        fileNames[_fileAddress] = _fileName;\n    }\n\n    // delete file from group, only allowed by admin or other members in group\n    function deleteFileFromGroup(\n        string memory _groupName,\n        address _fileAddress\n    ) public {\n        require(_fileAddress != address(0), \"File address is required\");\n        require(\n            bytes(groupMap[_groupName].name).length > 0,\n            \"Group does not exist\"\n        );\n\n        Group storage group = groupMap[_groupName];\n        bool memberExists = false;\n        for (uint i = 0; i < group.members.length; i++) {\n            if (group.members[i] == msg.sender) {\n                memberExists = true;\n                break;\n            }\n        }\n        require(\n            memberExists || msg.sender == admin,\n            \"Only admin or members of group can delete files from group\"\n        );\n\n        for (uint i = 0; i < group.files.length; i++) {\n            if (group.files[i] == _fileAddress) {\n                group.files[i] = group.files[group.files.length - 1];\n                group.files.pop();\n                break;\n            }\n        }\n    }\n\n    // get all files with their filenames in a group\n    function getFilesInGroup(\n        string memory _groupName\n    ) public view returns (address[] memory, string[] memory) {\n        require(\n            bytes(groupMap[_groupName].name).length > 0,\n            \"Group does not exist\"\n        );\n        Group storage group = groupMap[_groupName];\n        string[] memory fileNamesInGroup = new string[](group.files.length);\n        for (uint i = 0; i < group.files.length; i++) {\n            fileNamesInGroup[i] = fileNames[group.files[i]];\n        }\n        return (group.files, fileNamesInGroup);\n    }\n\n    // get all groups\n    function getGroups() public view returns (Group[] memory) {\n        return groups;\n    }\n\n    // get all employees with their names as employee array\n    function getEmployees() public view returns (Employee[] memory) {\n        Employee[] memory employees = new Employee[](employeeAddrs.length);\n        for (uint i = 0; i < employeeAddrs.length; i++) {\n            employees[i] = Employee(\n                employeeNames[employeeAddrs[i]],\n                employeeAddrs[i]\n            );\n        }\n        return employees;\n    }\n\n    // get all employees in a group with their name as one object\n    function getEmployeesInGroup(\n        string memory _groupName\n    ) public view returns (Employee[] memory) {\n        // check if group exists\n        require(\n            bytes(groupMap[_groupName].name).length > 0,\n            \"Group does not exist\"\n        );\n        Group storage group = groupMap[_groupName];\n        Employee[] memory employees = new Employee[](group.members.length);\n        for (uint i = 0; i < group.members.length; i++) {\n            employees[i] = Employee(\n                employeeNames[group.members[i]],\n                group.members[i]\n            );\n        }\n        return employees;\n    }\n\n    // function to check if user in employee list\n    function isEmployee(address _employeeAddress) public view returns (bool) {\n        if(_employeeAddress == admin) return true;\n        for (uint i = 0; i < employeeAddrs.length; i++) {\n            if (employeeAddrs[i] == _employeeAddress) {\n                return true;\n            }\n        }\n        return false;\n    }\n}\n",
  "sourcePath": "/Users/jyothsnaashok/Desktop/ethIndia22-cod3ine/frontend/contracts/Squad.sol",
  "compiler": {
    "name": "solc",
    "version": "0.8.4+commit.c7e474f2.Emscripten.clang"
  },
  "schemaVersion": "3.4.11",
  "updatedAt": "2022-12-03T06:46:45.615Z",
  "networkType": "ethereum",
  "devdoc": {
    "kind": "dev",
    "methods": {},
    "version": 1
  },
  "userdoc": {
    "kind": "user",
    "methods": {},
    "version": 1
  }
}