{
  "contractName": "Squad",
  "abi": [
    {
      "inputs": [
        {
          "internalType": "string",
          "name": "_orgName",
          "type": "string"
        }
      ],
      "stateMutability": "nonpayable",
      "type": "constructor"
    },
    {
      "inputs": [
        {
          "internalType": "uint256",
          "name": "",
          "type": "uint256"
        }
      ],
      "name": "employeeAddrs",
      "outputs": [
        {
          "internalType": "address",
          "name": "",
          "type": "address"
        }
      ],
      "stateMutability": "view",
      "type": "function",
      "constant": true
    },
    {
      "inputs": [
        {
          "internalType": "address",
          "name": "",
          "type": "address"
        }
      ],
      "name": "employeeNames",
      "outputs": [
        {
          "internalType": "string",
          "name": "",
          "type": "string"
        }
      ],
      "stateMutability": "view",
      "type": "function",
      "constant": true
    },
    {
      "inputs": [
        {
          "internalType": "address",
          "name": "",
          "type": "address"
        }
      ],
      "name": "fileNames",
      "outputs": [
        {
          "internalType": "string",
          "name": "",
          "type": "string"
        }
      ],
      "stateMutability": "view",
      "type": "function",
      "constant": true
    },
    {
      "inputs": [
        {
          "internalType": "string",
          "name": "",
          "type": "string"
        }
      ],
      "name": "groupMap",
      "outputs": [
        {
          "internalType": "string",
          "name": "name",
          "type": "string"
        }
      ],
      "stateMutability": "view",
      "type": "function",
      "constant": true
    },
    {
      "inputs": [
        {
          "internalType": "uint256",
          "name": "",
          "type": "uint256"
        }
      ],
      "name": "groups",
      "outputs": [
        {
          "internalType": "string",
          "name": "name",
          "type": "string"
        }
      ],
      "stateMutability": "view",
      "type": "function",
      "constant": true
    },
    {
      "inputs": [
        {
          "internalType": "address",
          "name": "_employeeAddress",
          "type": "address"
        },
        {
          "internalType": "string",
          "name": "_employeeName",
          "type": "string"
        }
      ],
      "name": "addEmployee",
      "outputs": [],
      "stateMutability": "nonpayable",
      "type": "function"
    },
    {
      "inputs": [
        {
          "internalType": "string",
          "name": "_groupName",
          "type": "string"
        }
      ],
      "name": "createGroup",
      "outputs": [],
      "stateMutability": "nonpayable",
      "type": "function"
    },
    {
      "inputs": [
        {
          "internalType": "string",
          "name": "_groupName",
          "type": "string"
        },
        {
          "internalType": "address",
          "name": "_employeeAddress",
          "type": "address"
        }
      ],
      "name": "addEmployeeToGroup",
      "outputs": [],
      "stateMutability": "nonpayable",
      "type": "function"
    },
    {
      "inputs": [
        {
          "internalType": "string",
          "name": "_groupName",
          "type": "string"
        },
        {
          "internalType": "address",
          "name": "_employeeAddress",
          "type": "address"
        }
      ],
      "name": "deleteEmployeeFromGroup",
      "outputs": [],
      "stateMutability": "nonpayable",
      "type": "function"
    },
    {
      "inputs": [
        {
          "internalType": "string",
          "name": "_groupName",
          "type": "string"
        },
        {
          "internalType": "address",
          "name": "_fileAddress",
          "type": "address"
        },
        {
          "internalType": "string",
          "name": "_fileName",
          "type": "string"
        }
      ],
      "name": "addFileToGroup",
      "outputs": [],
      "stateMutability": "nonpayable",
      "type": "function"
    },
    {
      "inputs": [
        {
          "internalType": "string",
          "name": "_groupName",
          "type": "string"
        },
        {
          "internalType": "address",
          "name": "_fileAddress",
          "type": "address"
        }
      ],
      "name": "deleteFileFromGroup",
      "outputs": [],
      "stateMutability": "nonpayable",
      "type": "function"
    },
    {
      "inputs": [
        {
          "internalType": "string",
          "name": "_groupName",
          "type": "string"
        }
      ],
      "name": "getFilesInGroup",
      "outputs": [
        {
          "internalType": "address[]",
          "name": "",
          "type": "address[]"
        },
        {
          "internalType": "string[]",
          "name": "",
          "type": "string[]"
        }
      ],
      "stateMutability": "view",
      "type": "function",
      "constant": true
    },
    {
      "inputs": [],
      "name": "getGroups",
      "outputs": [
        {
          "components": [
            {
              "internalType": "string",
              "name": "name",
              "type": "string"
            },
            {
              "internalType": "address[]",
              "name": "members",
              "type": "address[]"
            },
            {
              "internalType": "address[]",
              "name": "files",
              "type": "address[]"
            }
          ],
          "internalType": "struct Squad.Group[]",
          "name": "",
          "type": "tuple[]"
        }
      ],
      "stateMutability": "view",
      "type": "function",
      "constant": true
    },
    {
      "inputs": [],
      "name": "getEmployees",
      "outputs": [
        {
          "components": [
            {
              "internalType": "string",
              "name": "name",
              "type": "string"
            },
            {
              "internalType": "address",
              "name": "addr",
              "type": "address"
            }
          ],
          "internalType": "struct Squad.Employee[]",
          "name": "",
          "type": "tuple[]"
        }
      ],
      "stateMutability": "view",
      "type": "function",
      "constant": true
    },
    {
      "inputs": [
        {
          "internalType": "string",
          "name": "_groupName",
          "type": "string"
        }
      ],
      "name": "getEmployeesInGroup",
      "outputs": [
        {
          "components": [
            {
              "internalType": "string",
              "name": "name",
              "type": "string"
            },
            {
              "internalType": "address",
              "name": "addr",
              "type": "address"
            }
          ],
          "internalType": "struct Squad.Employee[]",
          "name": "",
          "type": "tuple[]"
        }
      ],
      "stateMutability": "view",
      "type": "function",
      "constant": true
    },
    {
      "inputs": [
        {
          "internalType": "address",
          "name": "_employeeAddress",
          "type": "address"
        }
      ],
      "name": "isEmployee",
      "outputs": [
        {
          "internalType": "bool",
          "name": "",
          "type": "bool"
        }
      ],
      "stateMutability": "view",
      "type": "function",
      "constant": true
    }
  ],
  "bytecode": "0x60806040523480156200001157600080fd5b506040516200404838038062004048833981810160405281019062000037919062000200565b60008151116200007e576040517f08c379a000000000000000000000000000000000000000000000000000000000815260040162000075906200026c565b60405180910390fd5b336000806101000a81548173ffffffffffffffffffffffffffffffffffffffff021916908373ffffffffffffffffffffffffffffffffffffffff1602179055508060019080519060200190620000d6929190620000de565b505062000438565b828054620000ec9062000334565b90600052602060002090601f0160209004810192826200011057600085556200015c565b82601f106200012b57805160ff19168380011785556200015c565b828001600101855582156200015c579182015b828111156200015b5782518255916020019190600101906200013e565b5b5090506200016b91906200016f565b5090565b5b808211156200018a57600081600090555060010162000170565b5090565b6000620001a56200019f84620002b7565b6200028e565b905082815260208101848484011115620001be57600080fd5b620001cb848285620002fe565b509392505050565b600082601f830112620001e557600080fd5b8151620001f78482602086016200018e565b91505092915050565b6000602082840312156200021357600080fd5b600082015167ffffffffffffffff8111156200022e57600080fd5b6200023c84828501620001d3565b91505092915050565b600062000254601d83620002ed565b915062000261826200040f565b602082019050919050565b60006020820190508181036000830152620002878162000245565b9050919050565b60006200029a620002ad565b9050620002a882826200036a565b919050565b6000604051905090565b600067ffffffffffffffff821115620002d557620002d4620003cf565b5b620002e082620003fe565b9050602081019050919050565b600082825260208201905092915050565b60005b838110156200031e57808201518184015260208101905062000301565b838111156200032e576000848401525b50505050565b600060028204905060018216806200034d57607f821691505b60208210811415620003645762000363620003a0565b5b50919050565b6200037582620003fe565b810181811067ffffffffffffffff82111715620003975762000396620003cf565b5b80604052505050565b7f4e487b7100000000000000000000000000000000000000000000000000000000600052602260045260246000fd5b7f4e487b7100000000000000000000000000000000000000000000000000000000600052604160045260246000fd5b6000601f19601f8301169050919050565b7f4f7267616e697a6174696f6e206e616d65206973207265717569726564000000600082015250565b613c0080620004486000396000f3fe608060405234801561001057600080fd5b50600436106101005760003560e01c8063a5b2f3f311610097578063dc2ddcae11610066578063dc2ddcae146102d2578063ea66543f146102ee578063ee7f4e431461031e578063f2dc37c21461034e57610100565b8063a5b2f3f31461024c578063b9b99ad714610268578063c72b517614610284578063cc24e697146102a257610100565b80636978bba3116100d35780636978bba3146101b457806396324bd4146101e45780639c5450c014610214578063a502e8081461023057610100565b806302f81bd91461010557806335d0de6a146101365780634007ae5b146101665780634abefa3614610196575b600080fd5b61011f600480360381019061011a9190612a92565b61036a565b60405161012d92919061320b565b60405180910390f35b610150600480360381019061014b9190612a15565b6106ae565b60405161015d91906132a1565b60405180910390f35b610180600480360381019061017b9190612a92565b61074e565b60405161018d91906132a1565b60405180910390f35b61019e61080a565b6040516101ab9190613242565b60405180910390f35b6101ce60048036038101906101c99190612ba6565b610ab8565b6040516101db91906131f0565b60405180910390f35b6101fe60048036038101906101f99190612ba6565b610af7565b60405161020b91906132a1565b60405180910390f35b61022e60048036038101906102299190612ad3565b610bad565b005b61024a60048036038101906102459190612a3e565b611047565b005b61026660048036038101906102619190612ad3565b6112d2565b005b610282600480360381019061027d9190612ad3565b6116b7565b005b61028c611a60565b6040516102999190613264565b60405180910390f35b6102bc60048036038101906102b79190612a92565b611c6d565b6040516102c99190613242565b60405180910390f35b6102ec60048036038101906102e79190612a92565b611fb8565b005b61030860048036038101906103039190612a15565b6122f0565b6040516103159190613286565b60405180910390f35b61033860048036038101906103339190612a15565b612420565b60405161034591906132a1565b60405180910390f35b61036860048036038101906103639190612b27565b6124c0565b005b606080600060058460405161037f91906131d9565b9081526020016040518091039020600001805461039b90613704565b9050116103dd576040517f08c379a00000000000000000000000000000000000000000000000000000000081526004016103d490613403565b60405180910390fd5b60006005846040516103ef91906131d9565b908152602001604051809103902090506000816002018054905067ffffffffffffffff811115610448577f4e487b7100000000000000000000000000000000000000000000000000000000600052604160045260246000fd5b60405190808252806020026020018201604052801561047b57816020015b60608152602001906001900390816104665790505b50905060005b826002018054905081101561061557600660008460020183815481106104d0577f4e487b7100000000000000000000000000000000000000000000000000000000600052603260045260246000fd5b9060005260206000200160009054906101000a900473ffffffffffffffffffffffffffffffffffffffff1673ffffffffffffffffffffffffffffffffffffffff1673ffffffffffffffffffffffffffffffffffffffff168152602001908152602001600020805461054090613704565b80601f016020809104026020016040519081016040528092919081815260200182805461056c90613704565b80156105b95780601f1061058e576101008083540402835291602001916105b9565b820191906000526020600020905b81548152906001019060200180831161059c57829003601f168201915b50505050508282815181106105f7577f4e487b7100000000000000000000000000000000000000000000000000000000600052603260045260246000fd5b6020026020010181905250808061060d90613767565b915050610481565b5081600201818180548060200260200160405190810160405280929190818152602001828054801561069c57602002820191906000526020600020905b8160009054906101000a900473ffffffffffffffffffffffffffffffffffffffff1673ffffffffffffffffffffffffffffffffffffffff1681526020019060010190808311610652575b50505050509150935093505050915091565b600660205280600052604060002060009150905080546106cd90613704565b80601f01602080910402602001604051908101604052809291908181526020018280546106f990613704565b80156107465780601f1061071b57610100808354040283529160200191610746565b820191906000526020600020905b81548152906001019060200180831161072957829003601f168201915b505050505081565b60058180516020810182018051848252602083016020850120818352809550505050505060009150905080600001805461078790613704565b80601f01602080910402602001604051908101604052809291908181526020018280546107b390613704565b80156108005780601f106107d557610100808354040283529160200191610800565b820191906000526020600020905b8154815290600101906020018083116107e357829003601f168201915b5050505050905081565b6060600060038054905067ffffffffffffffff811115610853577f4e487b7100000000000000000000000000000000000000000000000000000000600052604160045260246000fd5b60405190808252806020026020018201604052801561088c57816020015b610879612826565b8152602001906001900390816108715790505b50905060005b600380549050811015610ab057604051806040016040528060026000600385815481106108e8577f4e487b7100000000000000000000000000000000000000000000000000000000600052603260045260246000fd5b9060005260206000200160009054906101000a900473ffffffffffffffffffffffffffffffffffffffff1673ffffffffffffffffffffffffffffffffffffffff1673ffffffffffffffffffffffffffffffffffffffff168152602001908152602001600020805461095890613704565b80601f016020809104026020016040519081016040528092919081815260200182805461098490613704565b80156109d15780601f106109a6576101008083540402835291602001916109d1565b820191906000526020600020905b8154815290600101906020018083116109b457829003601f168201915b5050505050815260200160038381548110610a15577f4e487b7100000000000000000000000000000000000000000000000000000000600052603260045260246000fd5b9060005260206000200160009054906101000a900473ffffffffffffffffffffffffffffffffffffffff1673ffffffffffffffffffffffffffffffffffffffff16815250828281518110610a92577f4e487b7100000000000000000000000000000000000000000000000000000000600052603260045260246000fd5b60200260200101819052508080610aa890613767565b915050610892565b508091505090565b60038181548110610ac857600080fd5b906000526020600020016000915054906101000a900473ffffffffffffffffffffffffffffffffffffffff1681565b60048181548110610b0757600080fd5b9060005260206000209060030201600091509050806000018054610b2a90613704565b80601f0160208091040260200160405190810160405280929190818152602001828054610b5690613704565b8015610ba35780601f10610b7857610100808354040283529160200191610ba3565b820191906000526020600020905b815481529060010190602001808311610b8657829003601f168201915b5050505050905081565b600073ffffffffffffffffffffffffffffffffffffffff168173ffffffffffffffffffffffffffffffffffffffff161415610c1d576040517f08c379a0000000000000000000000000000000000000000000000000000000008152600401610c14906133c3565b60405180910390fd5b6000600583604051610c2f91906131d9565b90815260200160405180910390206000018054610c4b90613704565b905011610c8d576040517f08c379a0000000000000000000000000000000000000000000000000000000008152600401610c8490613403565b60405180910390fd5b6000600583604051610c9f91906131d9565b908152602001604051809103902090506000805b8260010180549050811015610d78573373ffffffffffffffffffffffffffffffffffffffff16836001018281548110610d15577f4e487b7100000000000000000000000000000000000000000000000000000000600052603260045260246000fd5b9060005260206000200160009054906101000a900473ffffffffffffffffffffffffffffffffffffffff1673ffffffffffffffffffffffffffffffffffffffff161415610d655760019150610d78565b8080610d7090613767565b915050610cb3565b508080610dd0575060008054906101000a900473ffffffffffffffffffffffffffffffffffffffff1673ffffffffffffffffffffffffffffffffffffffff163373ffffffffffffffffffffffffffffffffffffffff16145b610e0f576040517f08c379a0000000000000000000000000000000000000000000000000000000008152600401610e0690613463565b60405180910390fd5b60005b8260020180549050811015611040578373ffffffffffffffffffffffffffffffffffffffff16836002018281548110610e74577f4e487b7100000000000000000000000000000000000000000000000000000000600052603260045260246000fd5b9060005260206000200160009054906101000a900473ffffffffffffffffffffffffffffffffffffffff1673ffffffffffffffffffffffffffffffffffffffff16141561102d578260020160018460020180549050610ed39190613646565b81548110610f0a577f4e487b7100000000000000000000000000000000000000000000000000000000600052603260045260246000fd5b9060005260206000200160009054906101000a900473ffffffffffffffffffffffffffffffffffffffff16836002018281548110610f71577f4e487b7100000000000000000000000000000000000000000000000000000000600052603260045260246000fd5b9060005260206000200160006101000a81548173ffffffffffffffffffffffffffffffffffffffff021916908373ffffffffffffffffffffffffffffffffffffffff16021790555082600201805480610ff3577f4e487b7100000000000000000000000000000000000000000000000000000000600052603160045260246000fd5b6001900381819060005260206000200160006101000a81549073ffffffffffffffffffffffffffffffffffffffff02191690559055611040565b808061103890613767565b915050610e12565b5050505050565b60008054906101000a900473ffffffffffffffffffffffffffffffffffffffff1673ffffffffffffffffffffffffffffffffffffffff163373ffffffffffffffffffffffffffffffffffffffff16146110d5576040517f08c379a00000000000000000000000000000000000000000000000000000000081526004016110cc90613363565b60405180910390fd5b6000815111611119576040517f08c379a000000000000000000000000000000000000000000000000000000000815260040161111090613303565b60405180910390fd5b600073ffffffffffffffffffffffffffffffffffffffff168273ffffffffffffffffffffffffffffffffffffffff161415611189576040517f08c379a0000000000000000000000000000000000000000000000000000000008152600401611180906134a3565b60405180910390fd5b6000600260008473ffffffffffffffffffffffffffffffffffffffff1673ffffffffffffffffffffffffffffffffffffffff16815260200190815260200160002080546111d590613704565b905014611217576040517f08c379a000000000000000000000000000000000000000000000000000000000815260040161120e906132c3565b60405180910390fd5b6003829080600181540180825580915050600190039060005260206000200160009091909190916101000a81548173ffffffffffffffffffffffffffffffffffffffff021916908373ffffffffffffffffffffffffffffffffffffffff16021790555080600260008473ffffffffffffffffffffffffffffffffffffffff1673ffffffffffffffffffffffffffffffffffffffff16815260200190815260200160002090805190602001906112cd929190612856565b505050565b60008054906101000a900473ffffffffffffffffffffffffffffffffffffffff1673ffffffffffffffffffffffffffffffffffffffff163373ffffffffffffffffffffffffffffffffffffffff1614611360576040517f08c379a000000000000000000000000000000000000000000000000000000000815260040161135790613423565b60405180910390fd5b600060058360405161137291906131d9565b9081526020016040518091039020600001805461138e90613704565b9050116113d0576040517f08c379a00000000000000000000000000000000000000000000000000000000081526004016113c790613403565b60405180910390fd5b6000600260008373ffffffffffffffffffffffffffffffffffffffff1673ffffffffffffffffffffffffffffffffffffffff168152602001908152602001600020805461141c90613704565b90501161145e576040517f08c379a000000000000000000000000000000000000000000000000000000000815260040161145590613323565b60405180910390fd5b600060058360405161147091906131d9565b9081526020016040518091039020905060005b81600101805490508110156116b1578273ffffffffffffffffffffffffffffffffffffffff168260010182815481106114e5577f4e487b7100000000000000000000000000000000000000000000000000000000600052603260045260246000fd5b9060005260206000200160009054906101000a900473ffffffffffffffffffffffffffffffffffffffff1673ffffffffffffffffffffffffffffffffffffffff16141561169e5781600101600183600101805490506115449190613646565b8154811061157b577f4e487b7100000000000000000000000000000000000000000000000000000000600052603260045260246000fd5b9060005260206000200160009054906101000a900473ffffffffffffffffffffffffffffffffffffffff168260010182815481106115e2577f4e487b7100000000000000000000000000000000000000000000000000000000600052603260045260246000fd5b9060005260206000200160006101000a81548173ffffffffffffffffffffffffffffffffffffffff021916908373ffffffffffffffffffffffffffffffffffffffff16021790555081600101805480611664577f4e487b7100000000000000000000000000000000000000000000000000000000600052603160045260246000fd5b6001900381819060005260206000200160006101000a81549073ffffffffffffffffffffffffffffffffffffffff021916905590556116b1565b80806116a990613767565b915050611483565b50505050565b60008054906101000a900473ffffffffffffffffffffffffffffffffffffffff1673ffffffffffffffffffffffffffffffffffffffff163373ffffffffffffffffffffffffffffffffffffffff1614611745576040517f08c379a000000000000000000000000000000000000000000000000000000000815260040161173c90613343565b60405180910390fd5b6000805b60038054905081101561180a578273ffffffffffffffffffffffffffffffffffffffff16600382815481106117a7577f4e487b7100000000000000000000000000000000000000000000000000000000600052603260045260246000fd5b9060005260206000200160009054906101000a900473ffffffffffffffffffffffffffffffffffffffff1673ffffffffffffffffffffffffffffffffffffffff1614156117f7576001915061180a565b808061180290613767565b915050611749565b508061184b576040517f08c379a000000000000000000000000000000000000000000000000000000000815260040161184290613323565b60405180910390fd5b600060058460405161185d91906131d9565b9081526020016040518091039020600001805461187990613704565b9050116118bb576040517f08c379a00000000000000000000000000000000000000000000000000000000081526004016118b290613403565b60405180910390fd5b60006005846040516118cd91906131d9565b9081526020016040518091039020905060005b81600101805490508110156119d7578373ffffffffffffffffffffffffffffffffffffffff16826001018281548110611942577f4e487b7100000000000000000000000000000000000000000000000000000000600052603260045260246000fd5b9060005260206000200160009054906101000a900473ffffffffffffffffffffffffffffffffffffffff1673ffffffffffffffffffffffffffffffffffffffff1614156119c4576040517f08c379a00000000000000000000000000000000000000000000000000000000081526004016119bb90613443565b60405180910390fd5b80806119cf90613767565b9150506118e0565b506005846040516119e891906131d9565b9081526020016040518091039020600101839080600181540180825580915050600190039060005260206000200160009091909190916101000a81548173ffffffffffffffffffffffffffffffffffffffff021916908373ffffffffffffffffffffffffffffffffffffffff16021790555050505050565b60606004805480602002602001604051908101604052809291908181526020016000905b82821015611c645783829060005260206000209060030201604051806060016040529081600082018054611ab790613704565b80601f0160208091040260200160405190810160405280929190818152602001828054611ae390613704565b8015611b305780601f10611b0557610100808354040283529160200191611b30565b820191906000526020600020905b815481529060010190602001808311611b1357829003601f168201915b5050505050815260200160018201805480602002602001604051908101604052809291908181526020018280548015611bbe57602002820191906000526020600020905b8160009054906101000a900473ffffffffffffffffffffffffffffffffffffffff1673ffffffffffffffffffffffffffffffffffffffff1681526020019060010190808311611b74575b5050505050815260200160028201805480602002602001604051908101604052809291908181526020018280548015611c4c57602002820191906000526020600020905b8160009054906101000a900473ffffffffffffffffffffffffffffffffffffffff1673ffffffffffffffffffffffffffffffffffffffff1681526020019060010190808311611c02575b50505050508152505081526020019060010190611a84565b50505050905090565b60606000600583604051611c8191906131d9565b90815260200160405180910390206000018054611c9d90613704565b905011611cdf576040517f08c379a0000000000000000000000000000000000000000000000000000000008152600401611cd690613403565b60405180910390fd5b6000600583604051611cf191906131d9565b908152602001604051809103902090506000816001018054905067ffffffffffffffff811115611d4a577f4e487b7100000000000000000000000000000000000000000000000000000000600052604160045260246000fd5b604051908082528060200260200182016040528015611d8357816020015b611d70612826565b815260200190600190039081611d685790505b50905060005b8260010180549050811015611fad57604051806040016040528060026000866001018581548110611de3577f4e487b7100000000000000000000000000000000000000000000000000000000600052603260045260246000fd5b9060005260206000200160009054906101000a900473ffffffffffffffffffffffffffffffffffffffff1673ffffffffffffffffffffffffffffffffffffffff1673ffffffffffffffffffffffffffffffffffffffff1681526020019081526020016000208054611e5390613704565b80601f0160208091040260200160405190810160405280929190818152602001828054611e7f90613704565b8015611ecc5780601f10611ea157610100808354040283529160200191611ecc565b820191906000526020600020905b815481529060010190602001808311611eaf57829003601f168201915b50505050508152602001846001018381548110611f12577f4e487b7100000000000000000000000000000000000000000000000000000000600052603260045260246000fd5b9060005260206000200160009054906101000a900473ffffffffffffffffffffffffffffffffffffffff1673ffffffffffffffffffffffffffffffffffffffff16815250828281518110611f8f577f4e487b7100000000000000000000000000000000000000000000000000000000600052603260045260246000fd5b60200260200101819052508080611fa590613767565b915050611d89565b508092505050919050565b60008054906101000a900473ffffffffffffffffffffffffffffffffffffffff1673ffffffffffffffffffffffffffffffffffffffff163373ffffffffffffffffffffffffffffffffffffffff1614612046576040517f08c379a000000000000000000000000000000000000000000000000000000000815260040161203d906133a3565b60405180910390fd5b600081511161208a576040517f08c379a0000000000000000000000000000000000000000000000000000000008152600401612081906132e3565b60405180910390fd5b600060058260405161209c91906131d9565b908152602001604051809103902060010180549050146120f1576040517f08c379a00000000000000000000000000000000000000000000000000000000081526004016120e890613383565b60405180910390fd5b60006040518060600160405280838152602001600067ffffffffffffffff811115612145577f4e487b7100000000000000000000000000000000000000000000000000000000600052604160045260246000fd5b6040519080825280602002602001820160405280156121735781602001602082028036833780820191505090505b508152602001600067ffffffffffffffff8111156121ba577f4e487b7100000000000000000000000000000000000000000000000000000000600052604160045260246000fd5b6040519080825280602002602001820160405280156121e85781602001602082028036833780820191505090505b50815250905060048190806001815401808255809150506001900390600052602060002090600302016000909190919091506000820151816000019080519060200190612236929190612856565b5060208201518160010190805190602001906122539291906128dc565b5060408201518160020190805190602001906122709291906128dc565b5050508060058360405161228491906131d9565b908152602001604051809103902060008201518160000190805190602001906122ae929190612856565b5060208201518160010190805190602001906122cb9291906128dc565b5060408201518160020190805190602001906122e89291906128dc565b509050505050565b60008060009054906101000a900473ffffffffffffffffffffffffffffffffffffffff1673ffffffffffffffffffffffffffffffffffffffff168273ffffffffffffffffffffffffffffffffffffffff161415612350576001905061241b565b60005b600380549050811015612415578273ffffffffffffffffffffffffffffffffffffffff16600382815481106123b1577f4e487b7100000000000000000000000000000000000000000000000000000000600052603260045260246000fd5b9060005260206000200160009054906101000a900473ffffffffffffffffffffffffffffffffffffffff1673ffffffffffffffffffffffffffffffffffffffff16141561240257600191505061241b565b808061240d90613767565b915050612353565b50600090505b919050565b6002602052806000526040600020600091509050805461243f90613704565b80601f016020809104026020016040519081016040528092919081815260200182805461246b90613704565b80156124b85780601f1061248d576101008083540402835291602001916124b8565b820191906000526020600020905b81548152906001019060200180831161249b57829003601f168201915b505050505081565b60006005846040516124d291906131d9565b908152602001604051809103902090506000805b82600101805490508110156125ab573373ffffffffffffffffffffffffffffffffffffffff16836001018281548110612548577f4e487b7100000000000000000000000000000000000000000000000000000000600052603260045260246000fd5b9060005260206000200160009054906101000a900473ffffffffffffffffffffffffffffffffffffffff1673ffffffffffffffffffffffffffffffffffffffff16141561259857600191506125ab565b80806125a390613767565b9150506124e6565b50600073ffffffffffffffffffffffffffffffffffffffff168473ffffffffffffffffffffffffffffffffffffffff16141561261c576040517f08c379a0000000000000000000000000000000000000000000000000000000008152600401612613906133c3565b60405180910390fd5b6000835111612660576040517f08c379a000000000000000000000000000000000000000000000000000000000815260040161265790613483565b60405180910390fd5b600060058660405161267291906131d9565b9081526020016040518091039020600001805461268e90613704565b9050116126d0576040517f08c379a00000000000000000000000000000000000000000000000000000000081526004016126c790613403565b60405180910390fd5b8080612727575060008054906101000a900473ffffffffffffffffffffffffffffffffffffffff1673ffffffffffffffffffffffffffffffffffffffff163373ffffffffffffffffffffffffffffffffffffffff16145b612766576040517f08c379a000000000000000000000000000000000000000000000000000000000815260040161275d906133e3565b60405180910390fd5b81600201849080600181540180825580915050600190039060005260206000200160009091909190916101000a81548173ffffffffffffffffffffffffffffffffffffffff021916908373ffffffffffffffffffffffffffffffffffffffff16021790555082600660008673ffffffffffffffffffffffffffffffffffffffff1673ffffffffffffffffffffffffffffffffffffffff168152602001908152602001600020908051906020019061281e929190612856565b505050505050565b604051806040016040528060608152602001600073ffffffffffffffffffffffffffffffffffffffff1681525090565b82805461286290613704565b90600052602060002090601f01602090048101928261288457600085556128cb565b82601f1061289d57805160ff19168380011785556128cb565b828001600101855582156128cb579182015b828111156128ca5782518255916020019190600101906128af565b5b5090506128d89190612966565b5090565b828054828255906000526020600020908101928215612955579160200282015b828111156129545782518260006101000a81548173ffffffffffffffffffffffffffffffffffffffff021916908373ffffffffffffffffffffffffffffffffffffffff160217905550916020019190600101906128fc565b5b5090506129629190612966565b5090565b5b8082111561297f576000816000905550600101612967565b5090565b6000612996612991846134e8565b6134c3565b9050828152602081018484840111156129ae57600080fd5b6129b98482856136c2565b509392505050565b6000813590506129d081613b9c565b92915050565b600082601f8301126129e757600080fd5b81356129f7848260208601612983565b91505092915050565b600081359050612a0f81613bb3565b92915050565b600060208284031215612a2757600080fd5b6000612a35848285016129c1565b91505092915050565b60008060408385031215612a5157600080fd5b6000612a5f858286016129c1565b925050602083013567ffffffffffffffff811115612a7c57600080fd5b612a88858286016129d6565b9150509250929050565b600060208284031215612aa457600080fd5b600082013567ffffffffffffffff811115612abe57600080fd5b612aca848285016129d6565b91505092915050565b60008060408385031215612ae657600080fd5b600083013567ffffffffffffffff811115612b0057600080fd5b612b0c858286016129d6565b9250506020612b1d858286016129c1565b9150509250929050565b600080600060608486031215612b3c57600080fd5b600084013567ffffffffffffffff811115612b5657600080fd5b612b62868287016129d6565b9350506020612b73868287016129c1565b925050604084013567ffffffffffffffff811115612b9057600080fd5b612b9c868287016129d6565b9150509250925092565b600060208284031215612bb857600080fd5b6000612bc684828501612a00565b91505092915050565b6000612bdb8383612c23565b60208301905092915050565b6000612bf38383612e6b565b905092915050565b6000612c07838361313e565b905092915050565b6000612c1b838361317b565b905092915050565b612c2c8161367a565b82525050565b612c3b8161367a565b82525050565b6000612c4c82613559565b612c5681856135c4565b9350612c6183613519565b8060005b83811015612c92578151612c798882612bcf565b9750612c8483613590565b925050600181019050612c65565b5085935050505092915050565b6000612caa82613559565b612cb481856135d5565b9350612cbf83613519565b8060005b83811015612cf0578151612cd78882612bcf565b9750612ce283613590565b925050600181019050612cc3565b5085935050505092915050565b6000612d0882613564565b612d1281856135e6565b935083602082028501612d2485613529565b8060005b85811015612d605784840389528151612d418582612be7565b9450612d4c8361359d565b925060208a01995050600181019050612d28565b50829750879550505050505092915050565b6000612d7d8261356f565b612d8781856135f7565b935083602082028501612d9985613539565b8060005b85811015612dd55784840389528151612db68582612bfb565b9450612dc1836135aa565b925060208a01995050600181019050612d9d565b50829750879550505050505092915050565b6000612df28261357a565b612dfc8185613608565b935083602082028501612e0e85613549565b8060005b85811015612e4a5784840389528151612e2b8582612c0f565b9450612e36836135b7565b925060208a01995050600181019050612e12565b50829750879550505050505092915050565b612e658161368c565b82525050565b6000612e7682613585565b612e808185613619565b9350612e908185602086016136d1565b612e998161383d565b840191505092915050565b6000612eaf82613585565b612eb9818561362a565b9350612ec98185602086016136d1565b612ed28161383d565b840191505092915050565b6000612ee882613585565b612ef2818561363b565b9350612f028185602086016136d1565b80840191505092915050565b6000612f1b60178361362a565b9150612f268261384e565b602082019050919050565b6000612f3e601a8361362a565b9150612f4982613877565b602082019050919050565b6000612f61601d8361362a565b9150612f6c826138a0565b602082019050919050565b6000612f8460178361362a565b9150612f8f826138c9565b602082019050919050565b6000612fa760268361362a565b9150612fb2826138f2565b604082019050919050565b6000612fca601c8361362a565b9150612fd582613941565b602082019050919050565b6000612fed60148361362a565b9150612ff88261396a565b602082019050919050565b6000613010601c8361362a565b915061301b82613993565b602082019050919050565b600061303360188361362a565b915061303e826139bc565b602082019050919050565b600061305660358361362a565b9150613061826139e5565b604082019050919050565b600061307960148361362a565b915061308482613a34565b602082019050919050565b600061309c602b8361362a565b91506130a782613a5d565b604082019050919050565b60006130bf60248361362a565b91506130ca82613aac565b604082019050919050565b60006130e2603a8361362a565b91506130ed82613afb565b604082019050919050565b600061310560198361362a565b915061311082613b4a565b602082019050919050565b6000613128601c8361362a565b915061313382613b73565b602082019050919050565b6000604083016000830151848203600086015261315b8282612e6b565b91505060208301516131706020860182612c23565b508091505092915050565b600060608301600083015184820360008601526131988282612e6b565b915050602083015184820360208601526131b28282612c41565b915050604083015184820360408601526131cc8282612c41565b9150508091505092915050565b60006131e58284612edd565b915081905092915050565b60006020820190506132056000830184612c32565b92915050565b600060408201905081810360008301526132258185612c9f565b905081810360208301526132398184612cfd565b90509392505050565b6000602082019050818103600083015261325c8184612d72565b905092915050565b6000602082019050818103600083015261327e8184612de7565b905092915050565b600060208201905061329b6000830184612e5c565b92915050565b600060208201905081810360008301526132bb8184612ea4565b905092915050565b600060208201905081810360008301526132dc81612f0e565b9050919050565b600060208201905081810360008301526132fc81612f31565b9050919050565b6000602082019050818103600083015261331c81612f54565b9050919050565b6000602082019050818103600083015261333c81612f77565b9050919050565b6000602082019050818103600083015261335c81612f9a565b9050919050565b6000602082019050818103600083015261337c81612fbd565b9050919050565b6000602082019050818103600083015261339c81612fe0565b9050919050565b600060208201905081810360008301526133bc81613003565b9050919050565b600060208201905081810360008301526133dc81613026565b9050919050565b600060208201905081810360008301526133fc81613049565b9050919050565b6000602082019050818103600083015261341c8161306c565b9050919050565b6000602082019050818103600083015261343c8161308f565b9050919050565b6000602082019050818103600083015261345c816130b2565b9050919050565b6000602082019050818103600083015261347c816130d5565b9050919050565b6000602082019050818103600083015261349c816130f8565b9050919050565b600060208201905081810360008301526134bc8161311b565b9050919050565b60006134cd6134de565b90506134d98282613736565b919050565b6000604051905090565b600067ffffffffffffffff8211156135035761350261380e565b5b61350c8261383d565b9050602081019050919050565b6000819050602082019050919050565b6000819050602082019050919050565b6000819050602082019050919050565b6000819050602082019050919050565b600081519050919050565b600081519050919050565b600081519050919050565b600081519050919050565b600081519050919050565b6000602082019050919050565b6000602082019050919050565b6000602082019050919050565b6000602082019050919050565b600082825260208201905092915050565b600082825260208201905092915050565b600082825260208201905092915050565b600082825260208201905092915050565b600082825260208201905092915050565b600082825260208201905092915050565b600082825260208201905092915050565b600081905092915050565b6000613651826136b8565b915061365c836136b8565b92508282101561366f5761366e6137b0565b5b828203905092915050565b600061368582613698565b9050919050565b60008115159050919050565b600073ffffffffffffffffffffffffffffffffffffffff82169050919050565b6000819050919050565b82818337600083830152505050565b60005b838110156136ef5780820151818401526020810190506136d4565b838111156136fe576000848401525b50505050565b6000600282049050600182168061371c57607f821691505b602082108114156137305761372f6137df565b5b50919050565b61373f8261383d565b810181811067ffffffffffffffff8211171561375e5761375d61380e565b5b80604052505050565b6000613772826136b8565b91507fffffffffffffffffffffffffffffffffffffffffffffffffffffffffffffffff8214156137a5576137a46137b0565b5b600182019050919050565b7f4e487b7100000000000000000000000000000000000000000000000000000000600052601160045260246000fd5b7f4e487b7100000000000000000000000000000000000000000000000000000000600052602260045260246000fd5b7f4e487b7100000000000000000000000000000000000000000000000000000000600052604160045260246000fd5b6000601f19601f8301169050919050565b7f456d706c6f79656520616c726561647920657869737473000000000000000000600082015250565b7f47726f7570206e616d652063616e6e6f7420626520656d707479000000000000600082015250565b7f456d706c6f796565206e616d652063616e6e6f7420626520656d707479000000600082015250565b7f456d706c6f79656520646f6573206e6f74206578697374000000000000000000600082015250565b7f4f6e6c792061646d696e2063616e2061646420656d706c6f7965657320746f2060008201527f67726f7570730000000000000000000000000000000000000000000000000000602082015250565b7f4f6e6c792061646d696e2063616e2061646420656d706c6f7965657300000000600082015250565b7f47726f757020616c726561647920657869737473000000000000000000000000600082015250565b7f4f6e6c792061646d696e2063616e206372656174652067726f75707300000000600082015250565b7f46696c6520616464726573732069732072657175697265640000000000000000600082015250565b7f4f6e6c792061646d696e206f72206d656d62657273206f662067726f7570206360008201527f616e206164642066696c657320746f2067726f75700000000000000000000000602082015250565b7f47726f757020646f6573206e6f74206578697374000000000000000000000000600082015250565b7f4f6e6c792061646d696e2063616e2064656c65746520656d706c6f796565732060008201527f66726f6d2067726f757073000000000000000000000000000000000000000000602082015250565b7f456d706c6f79656520616c72656164792065786973747320696e20746865206760008201527f726f757000000000000000000000000000000000000000000000000000000000602082015250565b7f4f6e6c792061646d696e206f72206d656d62657273206f662067726f7570206360008201527f616e2064656c6574652066696c65732066726f6d2067726f7570000000000000602082015250565b7f46696c65206e616d652063616e6e6f7420626520656d70747900000000000000600082015250565b7f456d706c6f796565206164647265737320697320726571756972656400000000600082015250565b613ba58161367a565b8114613bb057600080fd5b50565b613bbc816136b8565b8114613bc757600080fd5b5056fea26469706673582212202976021d5aa81c0c3cda573fb64abd9fb45799a7cc2a2048f7df2c50a1ec0c5e64736f6c63430008040033",
  "immutableReferences": {},
  "source": "// SPDX-License-Identifier: MIT\npragma solidity ^0.8.4;\n\ncontract Squad {\n    address admin;\n    string orgName;\n\n    mapping(address => string) public employeeNames;\n    address[] public employeeAddrs;\n\n    struct Employee {\n        string name;\n        address addr;\n    }\n\n    struct Group {\n        string name;\n        address[] members;\n        address[] files;\n    }\n\n    Group[] public groups;\n    mapping(string => Group) public groupMap;\n    mapping(address => string) public fileNames;\n\n    constructor(string memory _orgName) {\n        require(bytes(_orgName).length > 0, \"Organization name is required\");\n        admin = payable(msg.sender);\n        orgName = _orgName;\n    }\n\n    // function to add employees to the organization\n    function addEmployee(\n        address _employeeAddress,\n        string memory _employeeName\n    ) public {\n        require(msg.sender == admin, \"Only admin can add employees\");\n        require(\n            bytes(_employeeName).length > 0,\n            \"Employee name cannot be empty\"\n        );\n        require(_employeeAddress != address(0), \"Employee address is required\");\n        require(\n            bytes(employeeNames[_employeeAddress]).length == 0,\n            \"Employee already exists\"\n        );\n        employeeAddrs.push(_employeeAddress);\n        employeeNames[_employeeAddress] = _employeeName;\n    }\n\n    // function to create a group\n    function createGroup(string memory _groupName) public {\n        require(msg.sender == admin, \"Only admin can create groups\");\n        require(bytes(_groupName).length > 0, \"Group name cannot be empty\");\n\n        require(\n            groupMap[_groupName].members.length == 0,\n            \"Group already exists\"\n        );\n        Group memory newGroup = Group(\n            _groupName,\n            new address[](0),\n            new address[](0)\n        );\n        groups.push(newGroup);\n        groupMap[_groupName] = newGroup;\n    }\n\n    // add an employee to a group by groupName\n    function addEmployeeToGroup(\n        string memory _groupName,\n        address _employeeAddress\n    ) public {\n        require(msg.sender == admin, \"Only admin can add employees to groups\");\n        bool employeeExists = false;\n        for (uint i = 0; i < employeeAddrs.length; i++) {\n            if (employeeAddrs[i] == _employeeAddress) {\n                employeeExists = true;\n                break;\n            }\n        }\n        require(employeeExists, \"Employee does not exist\");\n        require(\n            bytes(groupMap[_groupName].name).length > 0,\n            \"Group does not exist\"\n        );\n        // check if employee is already in the group\n        Group storage group = groupMap[_groupName];\n        for (uint i = 0; i < group.members.length; i++) {\n            if (group.members[i] == _employeeAddress) {\n                revert(\"Employee already exists in the group\");\n            }\n        }\n        groupMap[_groupName].members.push(_employeeAddress);\n    }\n\n    // delete employee from a group\n    function deleteEmployeeFromGroup(\n        string memory _groupName,\n        address _employeeAddress\n    ) public {\n        require(\n            msg.sender == admin,\n            \"Only admin can delete employees from groups\"\n        );\n        require(\n            bytes(groupMap[_groupName].name).length > 0,\n            \"Group does not exist\"\n        );\n        require(\n            bytes(employeeNames[_employeeAddress]).length > 0,\n            \"Employee does not exist\"\n        );\n        Group storage group = groupMap[_groupName];\n        for (uint i = 0; i < group.members.length; i++) {\n            if (group.members[i] == _employeeAddress) {\n                group.members[i] = group.members[group.members.length - 1];\n                group.members.pop();\n                break;\n            }\n        }\n    }\n\n    // add file to group, only allowed by admin or other members in group\n    function addFileToGroup(\n        string memory _groupName,\n        address _fileAddress,\n        string memory _fileName\n    ) public {\n        Group storage group = groupMap[_groupName];\n        bool memberExists = false;\n        for (uint i = 0; i < group.members.length; i++) {\n            if (group.members[i] == msg.sender) {\n                memberExists = true;\n                break;\n            }\n        }\n        // check for null address\n        require(_fileAddress != address(0), \"File address is required\");\n        require(bytes(_fileName).length > 0, \"File name cannot be empty\");\n        require(\n            bytes(groupMap[_groupName].name).length > 0,\n            \"Group does not exist\"\n        );\n        require(\n            memberExists || msg.sender == admin,\n            \"Only admin or members of group can add files to group\"\n        );\n        group.files.push(_fileAddress);\n        fileNames[_fileAddress] = _fileName;\n    }\n\n    // delete file from group, only allowed by admin or other members in group\n    function deleteFileFromGroup(\n        string memory _groupName,\n        address _fileAddress\n    ) public {\n        require(_fileAddress != address(0), \"File address is required\");\n        require(\n            bytes(groupMap[_groupName].name).length > 0,\n            \"Group does not exist\"\n        );\n\n        Group storage group = groupMap[_groupName];\n        bool memberExists = false;\n        for (uint i = 0; i < group.members.length; i++) {\n            if (group.members[i] == msg.sender) {\n                memberExists = true;\n                break;\n            }\n        }\n        require(\n            memberExists || msg.sender == admin,\n            \"Only admin or members of group can delete files from group\"\n        );\n\n        for (uint i = 0; i < group.files.length; i++) {\n            if (group.files[i] == _fileAddress) {\n                group.files[i] = group.files[group.files.length - 1];\n                group.files.pop();\n                break;\n            }\n        }\n    }\n\n    // get all files with their filenames in a group\n    function getFilesInGroup(\n        string memory _groupName\n    ) public view returns (address[] memory, string[] memory) {\n        require(\n            bytes(groupMap[_groupName].name).length > 0,\n            \"Group does not exist\"\n        );\n        Group storage group = groupMap[_groupName];\n        string[] memory fileNamesInGroup = new string[](group.files.length);\n        for (uint i = 0; i < group.files.length; i++) {\n            fileNamesInGroup[i] = fileNames[group.files[i]];\n        }\n        return (group.files, fileNamesInGroup);\n    }\n\n    // get all groups\n    function getGroups() public view returns (Group[] memory) {\n        return groups;\n    }\n\n    // get all employees with their names as employee array\n    function getEmployees() public view returns (Employee[] memory) {\n        Employee[] memory employees = new Employee[](employeeAddrs.length);\n        for (uint i = 0; i < employeeAddrs.length; i++) {\n            employees[i] = Employee(\n                employeeNames[employeeAddrs[i]],\n                employeeAddrs[i]\n            );\n        }\n        return employees;\n    }\n\n    // get all employees in a group with their name as one object\n    function getEmployeesInGroup(\n        string memory _groupName\n    ) public view returns (Employee[] memory) {\n        // check if group exists\n        require(\n            bytes(groupMap[_groupName].name).length > 0,\n            \"Group does not exist\"\n        );\n        Group storage group = groupMap[_groupName];\n        Employee[] memory employees = new Employee[](group.members.length);\n        for (uint i = 0; i < group.members.length; i++) {\n            employees[i] = Employee(\n                employeeNames[group.members[i]],\n                group.members[i]\n            );\n        }\n        return employees;\n    }\n\n    // function to check if user in employee list\n    function isEmployee(address _employeeAddress) public view returns (bool) {\n        if(_employeeAddress == admin) return true;\n        for (uint i = 0; i < employeeAddrs.length; i++) {\n            if (employeeAddrs[i] == _employeeAddress) {\n                return true;\n            }\n        }\n        return false;\n    }\n}\n",
  "sourcePath": "/Users/dhruva/ethIndia22-cod3ine/frontend/contracts/Squad.sol",
  "compiler": {
    "name": "solc",
    "version": "0.8.4+commit.c7e474f2.Emscripten.clang"
  },
  "schemaVersion": "3.4.11",
  "updatedAt": "2022-12-03T00:49:53.268Z",
  "networkType": "ethereum",
  "devdoc": {
    "kind": "dev",
    "methods": {},
    "version": 1
  },
  "userdoc": {
    "kind": "user",
    "methods": {},
    "version": 1
  }
}