{
  "contractName": "Squad",
  "abi": [
    {
      "inputs": [
        {
          "internalType": "string",
          "name": "_orgName",
          "type": "string"
        }
      ],
      "stateMutability": "nonpayable",
      "type": "constructor"
    },
    {
      "inputs": [
        {
          "internalType": "uint256",
          "name": "",
          "type": "uint256"
        }
      ],
      "name": "employeeAddrs",
      "outputs": [
        {
          "internalType": "address",
          "name": "",
          "type": "address"
        }
      ],
      "stateMutability": "view",
      "type": "function"
    },
    {
      "inputs": [
        {
          "internalType": "address",
          "name": "",
          "type": "address"
        }
      ],
      "name": "employeeNames",
      "outputs": [
        {
          "internalType": "string",
          "name": "",
          "type": "string"
        }
      ],
      "stateMutability": "view",
      "type": "function"
    },
    {
      "inputs": [
        {
          "internalType": "address",
          "name": "",
          "type": "address"
        }
      ],
      "name": "fileNames",
      "outputs": [
        {
          "internalType": "string",
          "name": "",
          "type": "string"
        }
      ],
      "stateMutability": "view",
      "type": "function"
    },
    {
      "inputs": [
        {
          "internalType": "string",
          "name": "",
          "type": "string"
        }
      ],
      "name": "groupMap",
      "outputs": [
        {
          "internalType": "string",
          "name": "name",
          "type": "string"
        }
      ],
      "stateMutability": "view",
      "type": "function"
    },
    {
      "inputs": [
        {
          "internalType": "uint256",
          "name": "",
          "type": "uint256"
        }
      ],
      "name": "groups",
      "outputs": [
        {
          "internalType": "string",
          "name": "name",
          "type": "string"
        }
      ],
      "stateMutability": "view",
      "type": "function"
    },
    {
      "inputs": [
        {
          "internalType": "address",
          "name": "_employeeAddress",
          "type": "address"
        },
        {
          "internalType": "string",
          "name": "_employeeName",
          "type": "string"
        }
      ],
      "name": "addEmployee",
      "outputs": [],
      "stateMutability": "nonpayable",
      "type": "function"
    },
    {
      "inputs": [
        {
          "internalType": "string",
          "name": "_groupName",
          "type": "string"
        }
      ],
      "name": "createGroup",
      "outputs": [],
      "stateMutability": "nonpayable",
      "type": "function"
    },
    {
      "inputs": [
        {
          "internalType": "string",
          "name": "_groupName",
          "type": "string"
        },
        {
          "internalType": "address",
          "name": "_employeeAddress",
          "type": "address"
        }
      ],
      "name": "addEmployeeToGroup",
      "outputs": [],
      "stateMutability": "nonpayable",
      "type": "function"
    },
    {
      "inputs": [
        {
          "internalType": "string",
          "name": "_groupName",
          "type": "string"
        },
        {
          "internalType": "address",
          "name": "_employeeAddress",
          "type": "address"
        }
      ],
      "name": "deleteEmployeeFromGroup",
      "outputs": [],
      "stateMutability": "nonpayable",
      "type": "function"
    },
    {
      "inputs": [
        {
          "internalType": "string",
          "name": "_groupName",
          "type": "string"
        },
        {
          "internalType": "address",
          "name": "_fileAddress",
          "type": "address"
        },
        {
          "internalType": "string",
          "name": "_fileName",
          "type": "string"
        }
      ],
      "name": "addFileToGroup",
      "outputs": [],
      "stateMutability": "nonpayable",
      "type": "function"
    },
    {
      "inputs": [
        {
          "internalType": "string",
          "name": "_groupName",
          "type": "string"
        },
        {
          "internalType": "address",
          "name": "_fileAddress",
          "type": "address"
        }
      ],
      "name": "deleteFileFromGroup",
      "outputs": [],
      "stateMutability": "nonpayable",
      "type": "function"
    },
    {
      "inputs": [
        {
          "internalType": "string",
          "name": "_groupName",
          "type": "string"
        }
      ],
      "name": "getFilesInGroup",
      "outputs": [
        {
          "internalType": "address[]",
          "name": "",
          "type": "address[]"
        },
        {
          "internalType": "string[]",
          "name": "",
          "type": "string[]"
        }
      ],
      "stateMutability": "view",
      "type": "function"
    },
    {
      "inputs": [],
      "name": "getGroups",
      "outputs": [
        {
          "components": [
            {
              "internalType": "string",
              "name": "name",
              "type": "string"
            },
            {
              "internalType": "address[]",
              "name": "members",
              "type": "address[]"
            },
            {
              "internalType": "address[]",
              "name": "files",
              "type": "address[]"
            }
          ],
          "internalType": "struct Squad.Group[]",
          "name": "",
          "type": "tuple[]"
        }
      ],
      "stateMutability": "view",
      "type": "function"
    },
    {
      "inputs": [],
      "name": "getEmployees",
      "outputs": [
        {
          "components": [
            {
              "internalType": "string",
              "name": "name",
              "type": "string"
            },
            {
              "internalType": "address",
              "name": "addr",
              "type": "address"
            }
          ],
          "internalType": "struct Squad.Employee[]",
          "name": "",
          "type": "tuple[]"
        }
      ],
      "stateMutability": "view",
      "type": "function"
    },
    {
      "inputs": [
        {
          "internalType": "string",
          "name": "_groupName",
          "type": "string"
        }
      ],
      "name": "getEmployeesInGroup",
      "outputs": [
        {
          "components": [
            {
              "internalType": "string",
              "name": "name",
              "type": "string"
            },
            {
              "internalType": "address",
              "name": "addr",
              "type": "address"
            }
          ],
          "internalType": "struct Squad.Employee[]",
          "name": "",
          "type": "tuple[]"
        }
      ],
      "stateMutability": "view",
      "type": "function"
    }
  ],
  "bytecode": "0x60806040523480156200001157600080fd5b5060405162003ea738038062003ea7833981810160405281019062000037919062000200565b60008151116200007e576040517f08c379a000000000000000000000000000000000000000000000000000000000815260040162000075906200026c565b60405180910390fd5b336000806101000a81548173ffffffffffffffffffffffffffffffffffffffff021916908373ffffffffffffffffffffffffffffffffffffffff1602179055508060019080519060200190620000d6929190620000de565b505062000438565b828054620000ec9062000334565b90600052602060002090601f0160209004810192826200011057600085556200015c565b82601f106200012b57805160ff19168380011785556200015c565b828001600101855582156200015c579182015b828111156200015b5782518255916020019190600101906200013e565b5b5090506200016b91906200016f565b5090565b5b808211156200018a57600081600090555060010162000170565b5090565b6000620001a56200019f84620002b7565b6200028e565b905082815260208101848484011115620001be57600080fd5b620001cb848285620002fe565b509392505050565b600082601f830112620001e557600080fd5b8151620001f78482602086016200018e565b91505092915050565b6000602082840312156200021357600080fd5b600082015167ffffffffffffffff8111156200022e57600080fd5b6200023c84828501620001d3565b91505092915050565b600062000254601d83620002ed565b915062000261826200040f565b602082019050919050565b60006020820190508181036000830152620002878162000245565b9050919050565b60006200029a620002ad565b9050620002a882826200036a565b919050565b6000604051905090565b600067ffffffffffffffff821115620002d557620002d4620003cf565b5b620002e082620003fe565b9050602081019050919050565b600082825260208201905092915050565b60005b838110156200031e57808201518184015260208101905062000301565b838111156200032e576000848401525b50505050565b600060028204905060018216806200034d57607f821691505b60208210811415620003645762000363620003a0565b5b50919050565b6200037582620003fe565b810181811067ffffffffffffffff82111715620003975762000396620003cf565b5b80604052505050565b7f4e487b7100000000000000000000000000000000000000000000000000000000600052602260045260246000fd5b7f4e487b7100000000000000000000000000000000000000000000000000000000600052604160045260246000fd5b6000601f19601f8301169050919050565b7f4f7267616e697a6174696f6e206e616d65206973207265717569726564000000600082015250565b613a5f80620004486000396000f3fe608060405234801561001057600080fd5b50600436106100f55760003560e01c8063a502e80811610097578063cc24e69711610066578063cc24e69714610297578063dc2ddcae146102c7578063ee7f4e43146102e3578063f2dc37c214610313576100f5565b8063a502e80814610225578063a5b2f3f314610241578063b9b99ad71461025d578063c72b517614610279576100f5565b80634abefa36116100d35780634abefa361461018b5780636978bba3146101a957806396324bd4146101d95780639c5450c014610209576100f5565b806302f81bd9146100fa57806335d0de6a1461012b5780634007ae5b1461015b575b600080fd5b610114600480360381019061010f9190612927565b61032f565b604051610122929190613091565b60405180910390f35b610145600480360381019061014091906128aa565b610673565b604051610152919061310c565b60405180910390f35b61017560048036038101906101709190612927565b610713565b604051610182919061310c565b60405180910390f35b6101936107cf565b6040516101a091906130c8565b60405180910390f35b6101c360048036038101906101be9190612a3b565b610a7d565b6040516101d09190613076565b60405180910390f35b6101f360048036038101906101ee9190612a3b565b610abc565b604051610200919061310c565b60405180910390f35b610223600480360381019061021e9190612968565b610b72565b005b61023f600480360381019061023a91906128d3565b61100c565b005b61025b60048036038101906102569190612968565b611297565b005b61027760048036038101906102729190612968565b61167c565b005b610281611a25565b60405161028e91906130ea565b60405180910390f35b6102b160048036038101906102ac9190612927565b611c32565b6040516102be91906130c8565b60405180910390f35b6102e160048036038101906102dc9190612927565b611f7d565b005b6102fd60048036038101906102f891906128aa565b6122b5565b60405161030a919061310c565b60405180910390f35b61032d600480360381019061032891906129bc565b612355565b005b6060806000600584604051610344919061305f565b9081526020016040518091039020600001805461036090613563565b9050116103a2576040517f08c379a00000000000000000000000000000000000000000000000000000000081526004016103999061326e565b60405180910390fd5b60006005846040516103b4919061305f565b908152602001604051809103902090506000816002018054905067ffffffffffffffff81111561040d577f4e487b7100000000000000000000000000000000000000000000000000000000600052604160045260246000fd5b60405190808252806020026020018201604052801561044057816020015b606081526020019060019003908161042b5790505b50905060005b82600201805490508110156105da5760066000846002018381548110610495577f4e487b7100000000000000000000000000000000000000000000000000000000600052603260045260246000fd5b9060005260206000200160009054906101000a900473ffffffffffffffffffffffffffffffffffffffff1673ffffffffffffffffffffffffffffffffffffffff1673ffffffffffffffffffffffffffffffffffffffff168152602001908152602001600020805461050590613563565b80601f016020809104026020016040519081016040528092919081815260200182805461053190613563565b801561057e5780601f106105535761010080835404028352916020019161057e565b820191906000526020600020905b81548152906001019060200180831161056157829003601f168201915b50505050508282815181106105bc577f4e487b7100000000000000000000000000000000000000000000000000000000600052603260045260246000fd5b602002602001018190525080806105d2906135c6565b915050610446565b5081600201818180548060200260200160405190810160405280929190818152602001828054801561066157602002820191906000526020600020905b8160009054906101000a900473ffffffffffffffffffffffffffffffffffffffff1673ffffffffffffffffffffffffffffffffffffffff1681526020019060010190808311610617575b50505050509150935093505050915091565b6006602052806000526040600020600091509050805461069290613563565b80601f01602080910402602001604051908101604052809291908181526020018280546106be90613563565b801561070b5780601f106106e05761010080835404028352916020019161070b565b820191906000526020600020905b8154815290600101906020018083116106ee57829003601f168201915b505050505081565b60058180516020810182018051848252602083016020850120818352809550505050505060009150905080600001805461074c90613563565b80601f016020809104026020016040519081016040528092919081815260200182805461077890613563565b80156107c55780601f1061079a576101008083540402835291602001916107c5565b820191906000526020600020905b8154815290600101906020018083116107a857829003601f168201915b5050505050905081565b6060600060038054905067ffffffffffffffff811115610818577f4e487b7100000000000000000000000000000000000000000000000000000000600052604160045260246000fd5b60405190808252806020026020018201604052801561085157816020015b61083e6126bb565b8152602001906001900390816108365790505b50905060005b600380549050811015610a7557604051806040016040528060026000600385815481106108ad577f4e487b7100000000000000000000000000000000000000000000000000000000600052603260045260246000fd5b9060005260206000200160009054906101000a900473ffffffffffffffffffffffffffffffffffffffff1673ffffffffffffffffffffffffffffffffffffffff1673ffffffffffffffffffffffffffffffffffffffff168152602001908152602001600020805461091d90613563565b80601f016020809104026020016040519081016040528092919081815260200182805461094990613563565b80156109965780601f1061096b57610100808354040283529160200191610996565b820191906000526020600020905b81548152906001019060200180831161097957829003601f168201915b50505050508152602001600383815481106109da577f4e487b7100000000000000000000000000000000000000000000000000000000600052603260045260246000fd5b9060005260206000200160009054906101000a900473ffffffffffffffffffffffffffffffffffffffff1673ffffffffffffffffffffffffffffffffffffffff16815250828281518110610a57577f4e487b7100000000000000000000000000000000000000000000000000000000600052603260045260246000fd5b60200260200101819052508080610a6d906135c6565b915050610857565b508091505090565b60038181548110610a8d57600080fd5b906000526020600020016000915054906101000a900473ffffffffffffffffffffffffffffffffffffffff1681565b60048181548110610acc57600080fd5b9060005260206000209060030201600091509050806000018054610aef90613563565b80601f0160208091040260200160405190810160405280929190818152602001828054610b1b90613563565b8015610b685780601f10610b3d57610100808354040283529160200191610b68565b820191906000526020600020905b815481529060010190602001808311610b4b57829003601f168201915b5050505050905081565b600073ffffffffffffffffffffffffffffffffffffffff168173ffffffffffffffffffffffffffffffffffffffff161415610be2576040517f08c379a0000000000000000000000000000000000000000000000000000000008152600401610bd99061322e565b60405180910390fd5b6000600583604051610bf4919061305f565b90815260200160405180910390206000018054610c1090613563565b905011610c52576040517f08c379a0000000000000000000000000000000000000000000000000000000008152600401610c499061326e565b60405180910390fd5b6000600583604051610c64919061305f565b908152602001604051809103902090506000805b8260010180549050811015610d3d573373ffffffffffffffffffffffffffffffffffffffff16836001018281548110610cda577f4e487b7100000000000000000000000000000000000000000000000000000000600052603260045260246000fd5b9060005260206000200160009054906101000a900473ffffffffffffffffffffffffffffffffffffffff1673ffffffffffffffffffffffffffffffffffffffff161415610d2a5760019150610d3d565b8080610d35906135c6565b915050610c78565b508080610d95575060008054906101000a900473ffffffffffffffffffffffffffffffffffffffff1673ffffffffffffffffffffffffffffffffffffffff163373ffffffffffffffffffffffffffffffffffffffff16145b610dd4576040517f08c379a0000000000000000000000000000000000000000000000000000000008152600401610dcb906132ce565b60405180910390fd5b60005b8260020180549050811015611005578373ffffffffffffffffffffffffffffffffffffffff16836002018281548110610e39577f4e487b7100000000000000000000000000000000000000000000000000000000600052603260045260246000fd5b9060005260206000200160009054906101000a900473ffffffffffffffffffffffffffffffffffffffff1673ffffffffffffffffffffffffffffffffffffffff161415610ff2578260020160018460020180549050610e9891906134b1565b81548110610ecf577f4e487b7100000000000000000000000000000000000000000000000000000000600052603260045260246000fd5b9060005260206000200160009054906101000a900473ffffffffffffffffffffffffffffffffffffffff16836002018281548110610f36577f4e487b7100000000000000000000000000000000000000000000000000000000600052603260045260246000fd5b9060005260206000200160006101000a81548173ffffffffffffffffffffffffffffffffffffffff021916908373ffffffffffffffffffffffffffffffffffffffff16021790555082600201805480610fb8577f4e487b7100000000000000000000000000000000000000000000000000000000600052603160045260246000fd5b6001900381819060005260206000200160006101000a81549073ffffffffffffffffffffffffffffffffffffffff02191690559055611005565b8080610ffd906135c6565b915050610dd7565b5050505050565b60008054906101000a900473ffffffffffffffffffffffffffffffffffffffff1673ffffffffffffffffffffffffffffffffffffffff163373ffffffffffffffffffffffffffffffffffffffff161461109a576040517f08c379a0000000000000000000000000000000000000000000000000000000008152600401611091906131ce565b60405180910390fd5b60008151116110de576040517f08c379a00000000000000000000000000000000000000000000000000000000081526004016110d59061316e565b60405180910390fd5b600073ffffffffffffffffffffffffffffffffffffffff168273ffffffffffffffffffffffffffffffffffffffff16141561114e576040517f08c379a00000000000000000000000000000000000000000000000000000000081526004016111459061330e565b60405180910390fd5b6000600260008473ffffffffffffffffffffffffffffffffffffffff1673ffffffffffffffffffffffffffffffffffffffff168152602001908152602001600020805461119a90613563565b9050146111dc576040517f08c379a00000000000000000000000000000000000000000000000000000000081526004016111d39061312e565b60405180910390fd5b6003829080600181540180825580915050600190039060005260206000200160009091909190916101000a81548173ffffffffffffffffffffffffffffffffffffffff021916908373ffffffffffffffffffffffffffffffffffffffff16021790555080600260008473ffffffffffffffffffffffffffffffffffffffff1673ffffffffffffffffffffffffffffffffffffffff16815260200190815260200160002090805190602001906112929291906126eb565b505050565b60008054906101000a900473ffffffffffffffffffffffffffffffffffffffff1673ffffffffffffffffffffffffffffffffffffffff163373ffffffffffffffffffffffffffffffffffffffff1614611325576040517f08c379a000000000000000000000000000000000000000000000000000000000815260040161131c9061328e565b60405180910390fd5b6000600583604051611337919061305f565b9081526020016040518091039020600001805461135390613563565b905011611395576040517f08c379a000000000000000000000000000000000000000000000000000000000815260040161138c9061326e565b60405180910390fd5b6000600260008373ffffffffffffffffffffffffffffffffffffffff1673ffffffffffffffffffffffffffffffffffffffff16815260200190815260200160002080546113e190613563565b905011611423576040517f08c379a000000000000000000000000000000000000000000000000000000000815260040161141a9061318e565b60405180910390fd5b6000600583604051611435919061305f565b9081526020016040518091039020905060005b8160010180549050811015611676578273ffffffffffffffffffffffffffffffffffffffff168260010182815481106114aa577f4e487b7100000000000000000000000000000000000000000000000000000000600052603260045260246000fd5b9060005260206000200160009054906101000a900473ffffffffffffffffffffffffffffffffffffffff1673ffffffffffffffffffffffffffffffffffffffff16141561166357816001016001836001018054905061150991906134b1565b81548110611540577f4e487b7100000000000000000000000000000000000000000000000000000000600052603260045260246000fd5b9060005260206000200160009054906101000a900473ffffffffffffffffffffffffffffffffffffffff168260010182815481106115a7577f4e487b7100000000000000000000000000000000000000000000000000000000600052603260045260246000fd5b9060005260206000200160006101000a81548173ffffffffffffffffffffffffffffffffffffffff021916908373ffffffffffffffffffffffffffffffffffffffff16021790555081600101805480611629577f4e487b7100000000000000000000000000000000000000000000000000000000600052603160045260246000fd5b6001900381819060005260206000200160006101000a81549073ffffffffffffffffffffffffffffffffffffffff02191690559055611676565b808061166e906135c6565b915050611448565b50505050565b60008054906101000a900473ffffffffffffffffffffffffffffffffffffffff1673ffffffffffffffffffffffffffffffffffffffff163373ffffffffffffffffffffffffffffffffffffffff161461170a576040517f08c379a0000000000000000000000000000000000000000000000000000000008152600401611701906131ae565b60405180910390fd5b6000805b6003805490508110156117cf578273ffffffffffffffffffffffffffffffffffffffff166003828154811061176c577f4e487b7100000000000000000000000000000000000000000000000000000000600052603260045260246000fd5b9060005260206000200160009054906101000a900473ffffffffffffffffffffffffffffffffffffffff1673ffffffffffffffffffffffffffffffffffffffff1614156117bc57600191506117cf565b80806117c7906135c6565b91505061170e565b5080611810576040517f08c379a00000000000000000000000000000000000000000000000000000000081526004016118079061318e565b60405180910390fd5b6000600584604051611822919061305f565b9081526020016040518091039020600001805461183e90613563565b905011611880576040517f08c379a00000000000000000000000000000000000000000000000000000000081526004016118779061326e565b60405180910390fd5b6000600584604051611892919061305f565b9081526020016040518091039020905060005b816001018054905081101561199c578373ffffffffffffffffffffffffffffffffffffffff16826001018281548110611907577f4e487b7100000000000000000000000000000000000000000000000000000000600052603260045260246000fd5b9060005260206000200160009054906101000a900473ffffffffffffffffffffffffffffffffffffffff1673ffffffffffffffffffffffffffffffffffffffff161415611989576040517f08c379a0000000000000000000000000000000000000000000000000000000008152600401611980906132ae565b60405180910390fd5b8080611994906135c6565b9150506118a5565b506005846040516119ad919061305f565b9081526020016040518091039020600101839080600181540180825580915050600190039060005260206000200160009091909190916101000a81548173ffffffffffffffffffffffffffffffffffffffff021916908373ffffffffffffffffffffffffffffffffffffffff16021790555050505050565b60606004805480602002602001604051908101604052809291908181526020016000905b82821015611c295783829060005260206000209060030201604051806060016040529081600082018054611a7c90613563565b80601f0160208091040260200160405190810160405280929190818152602001828054611aa890613563565b8015611af55780601f10611aca57610100808354040283529160200191611af5565b820191906000526020600020905b815481529060010190602001808311611ad857829003601f168201915b5050505050815260200160018201805480602002602001604051908101604052809291908181526020018280548015611b8357602002820191906000526020600020905b8160009054906101000a900473ffffffffffffffffffffffffffffffffffffffff1673ffffffffffffffffffffffffffffffffffffffff1681526020019060010190808311611b39575b5050505050815260200160028201805480602002602001604051908101604052809291908181526020018280548015611c1157602002820191906000526020600020905b8160009054906101000a900473ffffffffffffffffffffffffffffffffffffffff1673ffffffffffffffffffffffffffffffffffffffff1681526020019060010190808311611bc7575b50505050508152505081526020019060010190611a49565b50505050905090565b60606000600583604051611c46919061305f565b90815260200160405180910390206000018054611c6290613563565b905011611ca4576040517f08c379a0000000000000000000000000000000000000000000000000000000008152600401611c9b9061326e565b60405180910390fd5b6000600583604051611cb6919061305f565b908152602001604051809103902090506000816001018054905067ffffffffffffffff811115611d0f577f4e487b7100000000000000000000000000000000000000000000000000000000600052604160045260246000fd5b604051908082528060200260200182016040528015611d4857816020015b611d356126bb565b815260200190600190039081611d2d5790505b50905060005b8260010180549050811015611f7257604051806040016040528060026000866001018581548110611da8577f4e487b7100000000000000000000000000000000000000000000000000000000600052603260045260246000fd5b9060005260206000200160009054906101000a900473ffffffffffffffffffffffffffffffffffffffff1673ffffffffffffffffffffffffffffffffffffffff1673ffffffffffffffffffffffffffffffffffffffff1681526020019081526020016000208054611e1890613563565b80601f0160208091040260200160405190810160405280929190818152602001828054611e4490613563565b8015611e915780601f10611e6657610100808354040283529160200191611e91565b820191906000526020600020905b815481529060010190602001808311611e7457829003601f168201915b50505050508152602001846001018381548110611ed7577f4e487b7100000000000000000000000000000000000000000000000000000000600052603260045260246000fd5b9060005260206000200160009054906101000a900473ffffffffffffffffffffffffffffffffffffffff1673ffffffffffffffffffffffffffffffffffffffff16815250828281518110611f54577f4e487b7100000000000000000000000000000000000000000000000000000000600052603260045260246000fd5b60200260200101819052508080611f6a906135c6565b915050611d4e565b508092505050919050565b60008054906101000a900473ffffffffffffffffffffffffffffffffffffffff1673ffffffffffffffffffffffffffffffffffffffff163373ffffffffffffffffffffffffffffffffffffffff161461200b576040517f08c379a00000000000000000000000000000000000000000000000000000000081526004016120029061320e565b60405180910390fd5b600081511161204f576040517f08c379a00000000000000000000000000000000000000000000000000000000081526004016120469061314e565b60405180910390fd5b6000600582604051612061919061305f565b908152602001604051809103902060010180549050146120b6576040517f08c379a00000000000000000000000000000000000000000000000000000000081526004016120ad906131ee565b60405180910390fd5b60006040518060600160405280838152602001600067ffffffffffffffff81111561210a577f4e487b7100000000000000000000000000000000000000000000000000000000600052604160045260246000fd5b6040519080825280602002602001820160405280156121385781602001602082028036833780820191505090505b508152602001600067ffffffffffffffff81111561217f577f4e487b7100000000000000000000000000000000000000000000000000000000600052604160045260246000fd5b6040519080825280602002602001820160405280156121ad5781602001602082028036833780820191505090505b508152509050600481908060018154018082558091505060019003906000526020600020906003020160009091909190915060008201518160000190805190602001906121fb9291906126eb565b506020820151816001019080519060200190612218929190612771565b506040820151816002019080519060200190612235929190612771565b50505080600583604051612249919061305f565b908152602001604051809103902060008201518160000190805190602001906122739291906126eb565b506020820151816001019080519060200190612290929190612771565b5060408201518160020190805190602001906122ad929190612771565b509050505050565b600260205280600052604060002060009150905080546122d490613563565b80601f016020809104026020016040519081016040528092919081815260200182805461230090613563565b801561234d5780601f106123225761010080835404028352916020019161234d565b820191906000526020600020905b81548152906001019060200180831161233057829003601f168201915b505050505081565b6000600584604051612367919061305f565b908152602001604051809103902090506000805b8260010180549050811015612440573373ffffffffffffffffffffffffffffffffffffffff168360010182815481106123dd577f4e487b7100000000000000000000000000000000000000000000000000000000600052603260045260246000fd5b9060005260206000200160009054906101000a900473ffffffffffffffffffffffffffffffffffffffff1673ffffffffffffffffffffffffffffffffffffffff16141561242d5760019150612440565b8080612438906135c6565b91505061237b565b50600073ffffffffffffffffffffffffffffffffffffffff168473ffffffffffffffffffffffffffffffffffffffff1614156124b1576040517f08c379a00000000000000000000000000000000000000000000000000000000081526004016124a89061322e565b60405180910390fd5b60008351116124f5576040517f08c379a00000000000000000000000000000000000000000000000000000000081526004016124ec906132ee565b60405180910390fd5b6000600586604051612507919061305f565b9081526020016040518091039020600001805461252390613563565b905011612565576040517f08c379a000000000000000000000000000000000000000000000000000000000815260040161255c9061326e565b60405180910390fd5b80806125bc575060008054906101000a900473ffffffffffffffffffffffffffffffffffffffff1673ffffffffffffffffffffffffffffffffffffffff163373ffffffffffffffffffffffffffffffffffffffff16145b6125fb576040517f08c379a00000000000000000000000000000000000000000000000000000000081526004016125f29061324e565b60405180910390fd5b81600201849080600181540180825580915050600190039060005260206000200160009091909190916101000a81548173ffffffffffffffffffffffffffffffffffffffff021916908373ffffffffffffffffffffffffffffffffffffffff16021790555082600660008673ffffffffffffffffffffffffffffffffffffffff1673ffffffffffffffffffffffffffffffffffffffff16815260200190815260200160002090805190602001906126b39291906126eb565b505050505050565b604051806040016040528060608152602001600073ffffffffffffffffffffffffffffffffffffffff1681525090565b8280546126f790613563565b90600052602060002090601f0160209004810192826127195760008555612760565b82601f1061273257805160ff1916838001178555612760565b82800160010185558215612760579182015b8281111561275f578251825591602001919060010190612744565b5b50905061276d91906127fb565b5090565b8280548282559060005260206000209081019282156127ea579160200282015b828111156127e95782518260006101000a81548173ffffffffffffffffffffffffffffffffffffffff021916908373ffffffffffffffffffffffffffffffffffffffff16021790555091602001919060010190612791565b5b5090506127f791906127fb565b5090565b5b808211156128145760008160009055506001016127fc565b5090565b600061282b61282684613353565b61332e565b90508281526020810184848401111561284357600080fd5b61284e848285613521565b509392505050565b600081359050612865816139fb565b92915050565b600082601f83011261287c57600080fd5b813561288c848260208601612818565b91505092915050565b6000813590506128a481613a12565b92915050565b6000602082840312156128bc57600080fd5b60006128ca84828501612856565b91505092915050565b600080604083850312156128e657600080fd5b60006128f485828601612856565b925050602083013567ffffffffffffffff81111561291157600080fd5b61291d8582860161286b565b9150509250929050565b60006020828403121561293957600080fd5b600082013567ffffffffffffffff81111561295357600080fd5b61295f8482850161286b565b91505092915050565b6000806040838503121561297b57600080fd5b600083013567ffffffffffffffff81111561299557600080fd5b6129a18582860161286b565b92505060206129b285828601612856565b9150509250929050565b6000806000606084860312156129d157600080fd5b600084013567ffffffffffffffff8111156129eb57600080fd5b6129f78682870161286b565b9350506020612a0886828701612856565b925050604084013567ffffffffffffffff811115612a2557600080fd5b612a318682870161286b565b9150509250925092565b600060208284031215612a4d57600080fd5b6000612a5b84828501612895565b91505092915050565b6000612a708383612ab8565b60208301905092915050565b6000612a888383612cf1565b905092915050565b6000612a9c8383612fc4565b905092915050565b6000612ab08383613001565b905092915050565b612ac1816134e5565b82525050565b612ad0816134e5565b82525050565b6000612ae1826133c4565b612aeb818561342f565b9350612af683613384565b8060005b83811015612b27578151612b0e8882612a64565b9750612b19836133fb565b925050600181019050612afa565b5085935050505092915050565b6000612b3f826133c4565b612b498185613440565b9350612b5483613384565b8060005b83811015612b85578151612b6c8882612a64565b9750612b77836133fb565b925050600181019050612b58565b5085935050505092915050565b6000612b9d826133cf565b612ba78185613451565b935083602082028501612bb985613394565b8060005b85811015612bf55784840389528151612bd68582612a7c565b9450612be183613408565b925060208a01995050600181019050612bbd565b50829750879550505050505092915050565b6000612c12826133da565b612c1c8185613462565b935083602082028501612c2e856133a4565b8060005b85811015612c6a5784840389528151612c4b8582612a90565b9450612c5683613415565b925060208a01995050600181019050612c32565b50829750879550505050505092915050565b6000612c87826133e5565b612c918185613473565b935083602082028501612ca3856133b4565b8060005b85811015612cdf5784840389528151612cc08582612aa4565b9450612ccb83613422565b925060208a01995050600181019050612ca7565b50829750879550505050505092915050565b6000612cfc826133f0565b612d068185613484565b9350612d16818560208601613530565b612d1f8161369c565b840191505092915050565b6000612d35826133f0565b612d3f8185613495565b9350612d4f818560208601613530565b612d588161369c565b840191505092915050565b6000612d6e826133f0565b612d7881856134a6565b9350612d88818560208601613530565b80840191505092915050565b6000612da1601783613495565b9150612dac826136ad565b602082019050919050565b6000612dc4601a83613495565b9150612dcf826136d6565b602082019050919050565b6000612de7601d83613495565b9150612df2826136ff565b602082019050919050565b6000612e0a601783613495565b9150612e1582613728565b602082019050919050565b6000612e2d602683613495565b9150612e3882613751565b604082019050919050565b6000612e50601c83613495565b9150612e5b826137a0565b602082019050919050565b6000612e73601483613495565b9150612e7e826137c9565b602082019050919050565b6000612e96601c83613495565b9150612ea1826137f2565b602082019050919050565b6000612eb9601883613495565b9150612ec48261381b565b602082019050919050565b6000612edc603583613495565b9150612ee782613844565b604082019050919050565b6000612eff601483613495565b9150612f0a82613893565b602082019050919050565b6000612f22602b83613495565b9150612f2d826138bc565b604082019050919050565b6000612f45602483613495565b9150612f508261390b565b604082019050919050565b6000612f68603a83613495565b9150612f738261395a565b604082019050919050565b6000612f8b601983613495565b9150612f96826139a9565b602082019050919050565b6000612fae601c83613495565b9150612fb9826139d2565b602082019050919050565b60006040830160008301518482036000860152612fe18282612cf1565b9150506020830151612ff66020860182612ab8565b508091505092915050565b6000606083016000830151848203600086015261301e8282612cf1565b915050602083015184820360208601526130388282612ad6565b915050604083015184820360408601526130528282612ad6565b9150508091505092915050565b600061306b8284612d63565b915081905092915050565b600060208201905061308b6000830184612ac7565b92915050565b600060408201905081810360008301526130ab8185612b34565b905081810360208301526130bf8184612b92565b90509392505050565b600060208201905081810360008301526130e28184612c07565b905092915050565b600060208201905081810360008301526131048184612c7c565b905092915050565b600060208201905081810360008301526131268184612d2a565b905092915050565b6000602082019050818103600083015261314781612d94565b9050919050565b6000602082019050818103600083015261316781612db7565b9050919050565b6000602082019050818103600083015261318781612dda565b9050919050565b600060208201905081810360008301526131a781612dfd565b9050919050565b600060208201905081810360008301526131c781612e20565b9050919050565b600060208201905081810360008301526131e781612e43565b9050919050565b6000602082019050818103600083015261320781612e66565b9050919050565b6000602082019050818103600083015261322781612e89565b9050919050565b6000602082019050818103600083015261324781612eac565b9050919050565b6000602082019050818103600083015261326781612ecf565b9050919050565b6000602082019050818103600083015261328781612ef2565b9050919050565b600060208201905081810360008301526132a781612f15565b9050919050565b600060208201905081810360008301526132c781612f38565b9050919050565b600060208201905081810360008301526132e781612f5b565b9050919050565b6000602082019050818103600083015261330781612f7e565b9050919050565b6000602082019050818103600083015261332781612fa1565b9050919050565b6000613338613349565b90506133448282613595565b919050565b6000604051905090565b600067ffffffffffffffff82111561336e5761336d61366d565b5b6133778261369c565b9050602081019050919050565b6000819050602082019050919050565b6000819050602082019050919050565b6000819050602082019050919050565b6000819050602082019050919050565b600081519050919050565b600081519050919050565b600081519050919050565b600081519050919050565b600081519050919050565b6000602082019050919050565b6000602082019050919050565b6000602082019050919050565b6000602082019050919050565b600082825260208201905092915050565b600082825260208201905092915050565b600082825260208201905092915050565b600082825260208201905092915050565b600082825260208201905092915050565b600082825260208201905092915050565b600082825260208201905092915050565b600081905092915050565b60006134bc82613517565b91506134c783613517565b9250828210156134da576134d961360f565b5b828203905092915050565b60006134f0826134f7565b9050919050565b600073ffffffffffffffffffffffffffffffffffffffff82169050919050565b6000819050919050565b82818337600083830152505050565b60005b8381101561354e578082015181840152602081019050613533565b8381111561355d576000848401525b50505050565b6000600282049050600182168061357b57607f821691505b6020821081141561358f5761358e61363e565b5b50919050565b61359e8261369c565b810181811067ffffffffffffffff821117156135bd576135bc61366d565b5b80604052505050565b60006135d182613517565b91507fffffffffffffffffffffffffffffffffffffffffffffffffffffffffffffffff8214156136045761360361360f565b5b600182019050919050565b7f4e487b7100000000000000000000000000000000000000000000000000000000600052601160045260246000fd5b7f4e487b7100000000000000000000000000000000000000000000000000000000600052602260045260246000fd5b7f4e487b7100000000000000000000000000000000000000000000000000000000600052604160045260246000fd5b6000601f19601f8301169050919050565b7f456d706c6f79656520616c726561647920657869737473000000000000000000600082015250565b7f47726f7570206e616d652063616e6e6f7420626520656d707479000000000000600082015250565b7f456d706c6f796565206e616d652063616e6e6f7420626520656d707479000000600082015250565b7f456d706c6f79656520646f6573206e6f74206578697374000000000000000000600082015250565b7f4f6e6c792061646d696e2063616e2061646420656d706c6f7965657320746f2060008201527f67726f7570730000000000000000000000000000000000000000000000000000602082015250565b7f4f6e6c792061646d696e2063616e2061646420656d706c6f7965657300000000600082015250565b7f47726f757020616c726561647920657869737473000000000000000000000000600082015250565b7f4f6e6c792061646d696e2063616e206372656174652067726f75707300000000600082015250565b7f46696c6520616464726573732069732072657175697265640000000000000000600082015250565b7f4f6e6c792061646d696e206f72206d656d62657273206f662067726f7570206360008201527f616e206164642066696c657320746f2067726f75700000000000000000000000602082015250565b7f47726f757020646f6573206e6f74206578697374000000000000000000000000600082015250565b7f4f6e6c792061646d696e2063616e2064656c65746520656d706c6f796565732060008201527f66726f6d2067726f757073000000000000000000000000000000000000000000602082015250565b7f456d706c6f79656520616c72656164792065786973747320696e20746865206760008201527f726f757000000000000000000000000000000000000000000000000000000000602082015250565b7f4f6e6c792061646d696e206f72206d656d62657273206f662067726f7570206360008201527f616e2064656c6574652066696c65732066726f6d2067726f7570000000000000602082015250565b7f46696c65206e616d652063616e6e6f7420626520656d70747900000000000000600082015250565b7f456d706c6f796565206164647265737320697320726571756972656400000000600082015250565b613a04816134e5565b8114613a0f57600080fd5b50565b613a1b81613517565b8114613a2657600080fd5b5056fea26469706673582212205a4b41fb0787b840a94ccc312cb5d7a9d7fdd53d8dbfeea35c550d289c7b410d64736f6c63430008040033",
  "immutableReferences": {},
  "source": "// SPDX-License-Identifier: MIT\npragma solidity ^0.8.4;\n\ncontract Squad {\n    address admin;\n    string orgName;\n\n    mapping(address => string) public employeeNames;\n    address[] public employeeAddrs;\n\n    struct Employee {\n        string name;\n        address addr;\n    }\n\n    struct Group {\n        string name;\n        address[] members;\n        address[] files;\n    }\n\n    Group[] public groups;\n    mapping(string => Group) public groupMap;\n    mapping(address => string) public fileNames;\n\n    constructor(string memory _orgName) {\n        require(bytes(_orgName).length > 0, \"Organization name is required\");\n        admin = payable(msg.sender);\n        orgName = _orgName;\n    }\n\n    // function to add employees to the organization\n    function addEmployee(\n        address _employeeAddress,\n        string memory _employeeName\n    ) public {\n        require(msg.sender == admin, \"Only admin can add employees\");\n        require(\n            bytes(_employeeName).length > 0,\n            \"Employee name cannot be empty\"\n        );\n        require(_employeeAddress != address(0), \"Employee address is required\");\n        require(\n            bytes(employeeNames[_employeeAddress]).length == 0,\n            \"Employee already exists\"\n        );\n        employeeAddrs.push(_employeeAddress);\n        employeeNames[_employeeAddress] = _employeeName;\n    }\n\n    // function to create a group\n    function createGroup(string memory _groupName) public {\n        require(msg.sender == admin, \"Only admin can create groups\");\n        require(bytes(_groupName).length > 0, \"Group name cannot be empty\");\n\n        require(\n            groupMap[_groupName].members.length == 0,\n            \"Group already exists\"\n        );\n        Group memory newGroup = Group(\n            _groupName,\n            new address[](0),\n            new address[](0)\n        );\n        groups.push(newGroup);\n        groupMap[_groupName] = newGroup;\n    }\n\n    // add an employee to a group by groupName\n    function addEmployeeToGroup(\n        string memory _groupName,\n        address _employeeAddress\n    ) public {\n        require(msg.sender == admin, \"Only admin can add employees to groups\");\n        bool employeeExists = false;\n        for (uint i = 0; i < employeeAddrs.length; i++) {\n            if (employeeAddrs[i] == _employeeAddress) {\n                employeeExists = true;\n                break;\n            }\n        }\n        require(employeeExists, \"Employee does not exist\");\n        require(\n            bytes(groupMap[_groupName].name).length > 0,\n            \"Group does not exist\"\n        );\n        // check if employee is already in the group\n        Group storage group = groupMap[_groupName];\n        for (uint i = 0; i < group.members.length; i++) {\n            if (group.members[i] == _employeeAddress) {\n                revert(\"Employee already exists in the group\");\n            }\n        }\n        groupMap[_groupName].members.push(_employeeAddress);\n    }\n\n    // delete employee from a group\n    function deleteEmployeeFromGroup(\n        string memory _groupName,\n        address _employeeAddress\n    ) public {\n        require(\n            msg.sender == admin,\n            \"Only admin can delete employees from groups\"\n        );\n        require(\n            bytes(groupMap[_groupName].name).length > 0,\n            \"Group does not exist\"\n        );\n        require(\n            bytes(employeeNames[_employeeAddress]).length > 0,\n            \"Employee does not exist\"\n        );\n        Group storage group = groupMap[_groupName];\n        for (uint i = 0; i < group.members.length; i++) {\n            if (group.members[i] == _employeeAddress) {\n                group.members[i] = group.members[group.members.length - 1];\n                group.members.pop();\n                break;\n            }\n        }\n    }\n\n    // add file to group, only allowed by admin or other members in group\n    function addFileToGroup(\n        string memory _groupName,\n        address _fileAddress,\n        string memory _fileName\n    ) public {\n        Group storage group = groupMap[_groupName];\n        bool memberExists = false;\n        for (uint i = 0; i < group.members.length; i++) {\n            if (group.members[i] == msg.sender) {\n                memberExists = true;\n                break;\n            }\n        }\n        // check for null address\n        require(_fileAddress != address(0), \"File address is required\");\n        require(bytes(_fileName).length > 0, \"File name cannot be empty\");\n        require(\n            bytes(groupMap[_groupName].name).length > 0,\n            \"Group does not exist\"\n        );\n        require(\n            memberExists || msg.sender == admin,\n            \"Only admin or members of group can add files to group\"\n        );\n        group.files.push(_fileAddress);\n        fileNames[_fileAddress] = _fileName;\n    }\n\n    // delete file from group, only allowed by admin or other members in group\n    function deleteFileFromGroup(\n        string memory _groupName,\n        address _fileAddress\n    ) public {\n        require(_fileAddress != address(0), \"File address is required\");\n        require(\n            bytes(groupMap[_groupName].name).length > 0,\n            \"Group does not exist\"\n        );\n\n        Group storage group = groupMap[_groupName];\n        bool memberExists = false;\n        for (uint i = 0; i < group.members.length; i++) {\n            if (group.members[i] == msg.sender) {\n                memberExists = true;\n                break;\n            }\n        }\n        require(\n            memberExists || msg.sender == admin,\n            \"Only admin or members of group can delete files from group\"\n        );\n\n        for (uint i = 0; i < group.files.length; i++) {\n            if (group.files[i] == _fileAddress) {\n                group.files[i] = group.files[group.files.length - 1];\n                group.files.pop();\n                break;\n            }\n        }\n    }\n\n    // get all files with their filenames in a group\n    function getFilesInGroup(\n        string memory _groupName\n    ) public view returns (address[] memory, string[] memory) {\n        require(\n            bytes(groupMap[_groupName].name).length > 0,\n            \"Group does not exist\"\n        );\n        Group storage group = groupMap[_groupName];\n        string[] memory fileNamesInGroup = new string[](group.files.length);\n        for (uint i = 0; i < group.files.length; i++) {\n            fileNamesInGroup[i] = fileNames[group.files[i]];\n        }\n        return (group.files, fileNamesInGroup);\n    }\n\n    // get all groups\n    function getGroups() public view returns (Group[] memory) {\n        return groups;\n    }\n\n    // get all employees with their names as employee array\n    function getEmployees() public view returns (Employee[] memory) {\n        Employee[] memory employees = new Employee[](employeeAddrs.length);\n        for (uint i = 0; i < employeeAddrs.length; i++) {\n            employees[i] = Employee(\n                employeeNames[employeeAddrs[i]],\n                employeeAddrs[i]\n            );\n        }\n        return employees;\n    }\n\n    // get all employees in a group with their name as one object\n    function getEmployeesInGroup(\n        string memory _groupName\n    ) public view returns (Employee[] memory) {\n        // check if group exists\n        require(\n            bytes(groupMap[_groupName].name).length > 0,\n            \"Group does not exist\"\n        );\n        Group storage group = groupMap[_groupName];\n        Employee[] memory employees = new Employee[](group.members.length);\n        for (uint i = 0; i < group.members.length; i++) {\n            employees[i] = Employee(\n                employeeNames[group.members[i]],\n                group.members[i]\n            );\n        }\n        return employees;\n    }\n}\n",
  "sourcePath": "/home/sitaraman/Desktop/Github/ethIndia22-cod3ine/frontend/contracts/Squad.sol",
  "compiler": {
    "name": "solc",
    "version": "0.8.4+commit.c7e474f2.Emscripten.clang"
  },
  "schemaVersion": "3.4.11",
  "updatedAt": "2022-12-02T23:35:47.933Z",
  "devdoc": {
    "kind": "dev",
    "methods": {},
    "version": 1
  },
  "userdoc": {
    "kind": "user",
    "methods": {},
    "version": 1
  }
}